:100000000C947C080C94C3080C94C3080C94C3088B
:100010000C94C3080C94C3080C94C3080C94C30834
:100020000C94C3080C94C3080C9493270C94652873
:100030000C94C1220C94C3080C94C3080C94C308FC
:100040000C94C3080C94C3080C94C3080C94C30804
:100050000C94C3080C9429230C94C3080C94C30873
:100060000C94C3080C94C3080C94C3080C94C308E4
:100070000C94C3080C94C3080C94C3080C94C308D4
:100080000C94C3080C94C3080C94C3080C94C308C4
:100090000C94C3080C94C3080C94C3080C94C308B4
:1000A0000C94C3080C94C3080C94C308CA09CC0967
:1000B000D709CE09D009D209D409D609D909DB0953
:1000C000DD09E809DF09E109E309E509E709EA09CA
:1000D000DF18DF1811191119711A711A711A711AB2
:1000E0005119711AF219F219611A711A711A6A1AF0
:1000F000FF19FF19FF19FF19FF19FF19FF19FF1940
:10010000FF19FF19FF19FF19FF19FF19FF19FF192F
:100110000E1A1C1A231A2A1A341AF41AF41A061B75
:10012000061BFD1A061B061B061BF41AF41A021BFB
:10013000061B061B021BD228F928EB29F928EB29FC
:1001400045296829EB29BE29CD29010F020F010499
:100150000204010F020F01040204010F020F010447
:100160000204010D020D010C020C01110211011714
:100170000217010C020C0104020401110211011CFE
:10018000021C0108020801160216010B020B010CE9
:10019000020C010E020E0118021801040204010CE7
:1001A000020C010F020F01080208010702070108F3
:1001B0000208011C021C010C020C01170217010CA1
:1001C000020C010402040111021100011A021A01B9
:1001D00012021201040204010C020C010B020B01B9
:1001E00004020401110211010B020B0104020401BB
:1001F00011021101360236010B020B010402040147
:10020000110211010B020B01040204011102110180
:10021000040204010C020C011A021A01120212015A
:10022000E1011E021E02E100011D021D010B020B75
:100230000108020801160216010B020B010C020C48
:10024000010E020E01080208010E020E010802084A
:10025000011D021D011802180112021201070207F6
:100260000108020800011A021A0112021201040216
:1002700004010C020C010E020E01080208010E021C
:100280000E0108020801360236010E020E010802B4
:1002900008010E020E0108020801040204010C020A
:1002A0000C011A021A0112021201E1011E021E02C1
:1002B000E10029003A003B003C003D003E003F00C9
:1002C00040004100420043004400450046004C000D
:1002D00035001E001F002000210022002300240002
:1002E0002500260027002D002E002A004A002B00A2
:1002F00014001A000800150017001C0018000C005C
:10030000120013002F00300031004B0039000400B0
:100310001600070009000A000B000D000E000F0078
:1003200033003400280000004E00E1001D001B00D7
:1003300006001900050011001000360037003800D3
:10034000E500520000004D00E000E200E30001542F
:10035000000000002C0000000000E600E400500057
:10036000510000004F000100AA00A800A900AC0045
:10037000AE00AB00B100B200B500B400B900B600E9
:100380000100A500BF5CBD5CC25CBE5CC05CC35C20
:10039000CD5CCE5CCF5CD05CD15CD25CD35C010028
:1003A00001000100CA5CC95CC65CC55CC85CC75C76
:1003B0000100010001000100D45CD55C01000100D6
:1003C0000100010001000100010001000100010025
:1003D0000100010001000100010000000100010016
:1003E00000300130010001000100010001000100A6
:1003F00001000100010001000000005C010001009B
:1004000001000100000000000100000000000100E8
:1004100001000100010000000100010001000100D5
:1004200001000100010001000100010001000100C4
:1004300001000100010001000100010001000100B4
:1004400001000100010001000100010001000100A4
:100450000100010001000100010001000100010094
:100460000100010001000100010001000100010084
:100470000100010001000100010001000100010074
:100480000100010001000100010001000100000065
:100490000100010001000100010001000100010054
:1004A0000100010001000100010001000000010045
:1004B0000100010001000100000000000100000037
:1004C0000000010001000100010000000100010026
:1004D0000100010001000100010001000100010014
:1004E0000100010001000100010001000100010004
:1004F00001000100010001000100010001000100F4
:1005000001000100010001000100010001000100E3
:1005100001000100010001000100010001000100D3
:1005200001000100010001000100010001000100C3
:1005300001000100010001000100010001000100B3
:1005400001000000010001000100010001000100A4
:100550000100010001000100010001000100010093
:100560000000010001000100010001000000000086
:100570000100000000000100010001000100000076
:100580000100010001000100010001000100010063
:100590000100010001000100010001000100010053
:1005A0000100010001000100010001000100010043
:1005B0000100010001000100010001000100010033
:1005C0000100010001000100010001000100010023
:1005D0000100010001000100010001000100010013
:1005E0000100010001000100010001000100010003
:1005F00001000100010000000100010001000100F4
:1006000001000100010001000100010001000100E2
:1006100001000100000001000100010001000100D3
:1006200000000000010000000000010001000100C6
:1006300001000000010001000100010001000100B3
:1006400001000100010001000100010001000100A2
:100650000100010001000100010001000100010092
:100660000100010001000100010001000100010082
:100670000100010001000100010001000100010072
:100680000100010001000100010001000100010062
:100690000100010001000100010001000100010052
:1006A0000100010001000100010000000100010043
:1006B0000100010001000100010001000100010032
:1006C0000100010001000100000001000100010023
:1006D0000100010000000000010000000000010016
:1006E0000100010001000000010001000100010003
:1006F00001000100010001000100010001000100F2
:1007000001000100010001000100010001000100E1
:1007100001000100010001000100010001000100D1
:1007200001000100010001000100010001000100C1
:1007300001000100010001000100010001000100B1
:1007400001000100010001000100010001000100A1
:100750000100010001000100010001000100000092
:100760000100010001000100010001000100010081
:100770000100010001000100010001000000010072
:100780000100010001000100000000000100000064
:100790000000010001000100010000000100010053
:1007A0000100010001000100010001000100010041
:1007B0000100010001000100010001000100010031
:1007C0000100010001000100010001000100010021
:1007D0000100010001000100010001000100010011
:1007E0000100010001000100010001000100010001
:1007F00001000100010001000100010001000100F1
:1008000001000100010001000100010001000100E0
:1008100001000000010001000100010001000100D1
:1008200001000100010001000100010001000100C0
:1008300000000100010001000100010000000000B3
:1008400001000000000001000100010001000000A3
:100850000100010001000100010001000100010090
:100860000100010001000100010001000100010080
:100870000100010001000100010001000100010070
:100880000100010001000100010001000100010060
:100890000100010001000100010001000100010050
:1008A0000100010001000100010001000100010040
:1008B0000100010001000100010001000100010030
:1008C0000100010001000000010001000100010021
:1008D0000100010001000100010001000100010010
:1008E0000100010000000100010001000100010001
:1008F00000000000010000000000010001000100F4
:1009000001000000010001000100010001000100E0
:1009100001000100010001000100010001000100CF
:1009200001000100010001000100010001000100BF
:1009300001000100010001000100010001000100AF
:10094000010001000100010001000100010001009F
:10095000010001000100010001000100010001008F
:10096000010001000100010001000100010001007F
:100970000100010001000100010000000100010070
:10098000010001000100010001000100010001005F
:100990000100010001000100000001000100010050
:1009A0000100010000000000010000000000010043
:1009B0000100010001000000010001000100010030
:1009C000010001000100010001000100010001001F
:1009D000010001000100010001000100010001000F
:1009E00001000100010001000100010001000100FF
:1009F00001000100010001000100010001000100EF
:100A000001000100010001000100010001000100DE
:100A100001000100010001000100010001000100CE
:100A200001000100010001000100010001000000BF
:100A300001000100010001000100010001000100AE
:100A4000010001000100010001000100000001009F
:100A50000100010001000100000000000100000091
:100A60000000010001000100010000000100010080
:100A7000010001000100010001000100010001006E
:100A8000010001000100010001000100010001005E
:100A9000010001000100010001000100010001004E
:100AA000010001000100010001000100010001003E
:100AB000010001000100010001000100010001002E
:100AC000010001000100010001000100010001001E
:100AD000010001000100010001000100010001000E
:100AE00001000000010001000100010001000100FF
:100AF00001000100010001000100010001000100EE
:100B000000000100010001000100010000000000E0
:100B100001000000000001000100010001000000D0
:100B200001000100010001000100010001000100BD
:100B300001000100010001000100010001000100AD
:100B4000010001000100010001000100010001009D
:100B5000010001000100010001000100010001008D
:100B6000010001000100010001000100010001007D
:100B7000010001000100010001000100010001006D
:100B8000010001000100010001000100010001005D
:100B9000010001000100000001000100010001004E
:100BA000010001000100010001000100010001003D
:100BB000010001000000010001000100010001002E
:100BC0000000000001000000000001000100010021
:100BD000010000000100010001000100010001000E
:100BE00001000100010001000100010001000100FD
:100BF00001000100010001000100010001000100ED
:100C000001000100010001000100010001000100DC
:100C100001000100010001000100010001000100CC
:100C200001000100010001000100010001000100BC
:100C300001000100010001000100010001000100AC
:100C4000010001000100010001000000010001009D
:100C5000010001000100010001000100010001008C
:100C6000010001000100010000000100010001007D
:100C70000100010000000000010000000000010070
:100C8000010001000100000001000100010001005D
:100C9000010001000100010001000100010001004C
:100CA000010001000100010001000100010001003C
:100CB000010001000100010001000100010001002C
:100CC000010001000100010001000100010001001C
:100CD000010001000100010001000100010001000C
:100CE00001000100010001000100010001000100FC
:100CF00001000100010001000100010001000000ED
:100D000001000100010001000100010001000100DB
:100D100001000100010001000100010000000100CC
:100D200001000100010001000000000001000000BE
:100D300000000100010001000100000001000100AD
:100D4000010001000100010001000100010001009B
:100D5000010001000100010001000100010001008B
:100D6000010001000100010001000100010001007B
:100D7000010001000100010001000100010001006B
:100D8000010001000100010001000100010001005B
:100D9000010001000100010001000100010001004B
:100DA000010001000100010001000100010001003B
:100DB000010000000100010001000100010001002C
:100DC000010001000100010001000100010001001B
:100DD000000001000100010001000100000000000E
:100DE00001000000000001000100010001000000FE
:100DF000010000047F3F1F643214643214783C1EEB
:100E00001E140A052223252628292A2C2D2F3032AC
:100E1000333536383A3B3D3E4042434547494A4CDC
:100E20004E5051535557595A5C5E6062646668690A
:100E30006B6D6F71737577797B7D7F818385878912
:100E40008A8C8E90929496989A9C9E9FA1A3A5A717
:100E5000A8AAACAEAFB1B3B4B6B8B9BBBCBEBFC143
:100E6000C2C3C5C6C7C9CACBCCCDCED0D1D2D2D3CE
:100E7000D4D5D6D7D7D8D9D9DADADBDBDBDCDCDCE2
:100E8000DCDCDDDDDDDDDCDCDCDCDCDBDBDBDADAA5
:100E9000D9D9D8D7D7D6D5D4D3D2D2D1D0CECDCC1C
:100EA000CBCAC9C7C6C5C3C2C1BFBEBCBBB9B8B631
:100EB000B4B3B1AFAEACAAA8A7A5A3A19F9E9C9ABC
:100EC00098969492908E8C8A89878583817F7D7B8A
:100ED00079777573716F6D6B6968666462605E5C6B
:100EE0005A5957555351504E4C4A49474543424031
:100EF0003E3D3B3A3836353332302F2D2C2A2928C7
:100F000026252322FFAA7F55400000000000000094
:100F100000000001010101010101010102020202C0
:100F20000202020203030303030303040404040490
:100F3000050505050506060606060707070708084E
:100F400008080909090A0A0A0B0B0B0C0C0C0D0DF9
:100F50000D0E0E0E0F0F101010111112121313148C
:100F600014151516161717181819191A1A1B1C1C00
:100F70001D1D1E1F1F202121222323242525262756
:100F80002828292A2B2C2C2D2E2F30313132333486
:100F900035363738393A3B3C3D3E3F404142434489
:100FA00045464748494B4C4D4E4F50525354555768
:100FB00058595A5C5D5E606163646567686A6B6C12
:100FC0006E6F7172747677797A7C7D7F8182848688
:100FD00087898B8D8E9092949597999B9D9FA1A2C6
:100FE000A4A6A8AAACAEB0B2B4B6B9BBBDBFC1C3CB
:100FF000C5C8CACCCED0D3D5D7DADCDEE1E3E6E88B
:10100000EAEDEFF2F4F7F9FCFF0403300000000A08
:10101000036B0068003800330000000E0364007AA0
:1010200000740065006300680000000403090409FF
:10103000023B00020100A0FA0904000001030101C3
:101040000009211101000122400007058103080069
:101050000A09040100010300000009211101000137
:10106000223B000705820320000A12011001000044
:101070000008EDFE606001000102030105010906A0
:10108000A1018505050719E029E715002501950847
:10109000750181020508190129059505750191025F
:1010A0009501750391010507190029EF1500250128
:1010B00095F075018102C005010906A10105071916
:1010C000E029E71500250195087501810295017554
:1010D00008810105081901290595057501910295F9
:1010E00001750391010507190029FF150026FF006E
:1010F000950675088100C00011241FBECFEFDAE00D
:10110000DEBFCDBF04B603FE27C08091720390916D
:101110007303A0917403B09175038730904BA7407F
:10112000B04BD1F4109272031092730310927403B7
:101130001092750314BE84B7877F84BF0FB6F894EE
:10114000A895809160008861809360001092600093
:101150000FBEE0E0F8E3099511E0A0E0B1E0E8E4BB
:10116000F5E502C005900D92A835B107D9F723E047
:10117000A8E5B1E001C01D92A237B207E1F70E94D5
:10118000B5240C94A22A0C9400000C94ED080C9445
:10119000EE08FC01613061F028F0623079F06330D4
:1011A00099F018C082818823A9F085E692E008951D
:1011B0008281882379F088E292E0089582818823F1
:1011C00049F08BEC91E008958281882319F08AE43C
:1011D00091E0089580E090E008950895089581E0F9
:1011E0000895089581E008950C94EF081F93CF931C
:1011F000DF9300D000D01F92CDB7DEB749835A836A
:101200002091980189819A81211112C0662349F0A9
:101210000E941920182F682F89819A810E94BE1F71
:1012200003C00E94ED1F182F69817A81812F04C0AD
:101230000E94192069817A810F900F900F900F9072
:101240000F90DF91CF911F910C94580BFC014081BE
:1012500051816281738184810C94F6080E94492136
:10126000811102C00E94C3210C94C5080C94C708C8
:101270000C94F1080C94380908950E94E41A0E9415
:101280003C092FEF84E39CE0215080409040E1F73F
:1012900000C000000C944F230F931F93CF93DF9354
:1012A0008C010E942609EC01B8010E94F4088823F1
:1012B00009F4F7C1B801CE010E946A15882309F428
:1012C000F0C1CA3CFCE5DF0741F4F80182818823C4
:1012D00009F4E7C10E94A811E4C1CB3C8CE5D80712
:1012E00008F012C1C33C9CE5D90761F4F801828182
:1012F000882309F4D6C10E9499208272E1F00E94ED
:10130000D313CFC1C43CECE5DE07C0F0C63C9CE57E
:10131000D90709F4CAC008F0DCC0C43CFCE5DF070B
:1013200009F0CBC0F8018281882309F4BAC10E9478
:101330009920827221F30E94C613B3C1C531FCE526
:10134000DF0708F07BC0C2308CE5D80708F452C034
:10135000F8018281882309F454C00E944921811137
:1013600002C00E94C3210E945C2190E0909364031C
:1013700080936303FE01E350FC45E231F10530F454
:10138000EA5AFF4F809163030C94472A80916303CC
:10139000816027C0826025C0846023C0806121C035
:1013A00080621FC080641DC080681BC0846088602C
:1013B00018C08E7F16C08D7F14C08B7F12C08F7EA9
:1013C00010C08F7D0EC08F7B0CC08F770AC08B7FC3
:1013D000877F07C087FB222720F991E0922790FBA7
:1013E00087F980936303809163030E9460210E94C8
:1013F000E41A57C1C1159CE5D90751F0C130DC454D
:1014000079F0C801DF91CF911F910F910C94F208F0
:10141000F8018281882309F444C10E943D0941C139
:10142000F8018281882309F43CC180913A02982F07
:10143000909590FB80F980933A0233C1C631FCE568
:10144000DF0739F50E949920282FF8018281409109
:10145000100150911101882379F02A7A91E009F462
:1014600090E090935801911102C069E201C065E3D8
:10147000CA010E942A220AC080915801811102C02B
:1014800069E201C065E3CA010E9435220E94E5209D
:1014900008C1C23CDC4509F0B4CFF8018281882341
:1014A00009F4FFC00E94E113FCC0F8018281882387
:1014B00009F4F7C00E946C11F4C0C53CDC4509F08A
:1014C000A0CFF8018281882309F4EBC00E945F114C
:1014D000E8C0F8018281C83CFCE5DF0731F48823CD
:1014E00009F4DFC00E948A11DCC0C93CDC4530F43D
:1014F000882309F4D6C00E947B11D3C0882309F445
:10150000D0C00E949911CDC0C13DECE5DE0791F439
:10151000F8018281882309F4C4C00E94DA0F8F3059
:1015200028F00E94DA0F843108F405CF8FE00E9482
:10153000D613B7C0C23DFCE5DF0708F05AC0CD3C6A
:101540008CE5D80739F4F8018281882309F4A9C011
:1015500081E0EDCFCE3C9CE5D907C0F4CB3CECE577
:10156000DE0741F4F8018281882309F49AC00E94C1
:10157000E20F97C0CC3CDC4509F043CFF8018281F3
:10158000882309F48EC00E94F30F8BC0F80182817A
:10159000CF3CFCE5DF0771F4882309F482C00E9488
:1015A000DA0F863028F00E94DA0F883008F4C3CEB4
:1015B00086E0BDCFC03DDC4570F4882309F471C0DE
:1015C0000E94DA0F823028F00E94DA0F853008F48A
:1015D000B2CE82E0ACCF882309F463C00E94DA0F58
:1015E000893028F00E94DA0F8E3008F4A4CE89E00A
:1015F0009ECFC53DECE5DE0739F4F80182818823F2
:1016000009F44FC083E293CFC63DFCE5DF0740F508
:10161000F8018281C33DFCE5DF0729F4882309F442
:1016200040C088E184CFC43DDC4568F48823C9F11B
:101630000E94DA0F853128F00E94DA0F873108F412
:101640007ACE85E174CF882361F10E94DA0F893167
:1016500028F00E94DA0F823208F46DCE89E167CF5C
:10166000CD3DECE5DE0741F4F80182818823C9F025
:1016700082E00E94562515C0CE3DFCE5DF0739F417
:10168000F8018281882369F00E94C3210AC0CC3D01
:10169000DC4509F0B6CEF8018281882311F080E0A4
:1016A000E8CF80E0DF91CF911F910F9108950895C9
:1016B0009FE0799FF00111249AE5899FE00DF11DCB
:1016C0001124E60FF11DEE0FFF1FEE54FD4F859123
:1016D00094910895880F991FFC01EE50F24F859167
:1016E00094910895CF93DF930E94580B0E94290D87
:1016F000EC01811520E59207F0F5811530E49307A0
:1017000008F024C1883E910500F5803E910508F05F
:101710009CC1883A910570F4853A910508F09FC004
:101720008130910509F491C108F442C1049708F091
:101730008CC13EC18F3B910508F49CC0803C910553
:1017400008F436C1805C9109F4C0811540E2940729
:1017500058F4C11581E0D80708F077C1C03FD10522
:1017600008F426C1D06571C1811520E3920708F005
:10177000E4C09F70DEC0811535E5930708F044C0D2
:10178000811544E5940708F0F8C0C11582E5D80733
:1017900008F5C11521E5D20708F0DBC08C2F837056
:1017A00021E030E002C0220F331F8A95E2F73C6847
:1017B000CE0174E0969587957A95E1F78370382B82
:1017C000CF70C695C69580E2C89FE0011124C22B58
:1017D000D32B3BC12C2F26952695CE0183709927BC
:1017E000C115D34508F0BAC040E2249F90011124EE
:1017F000C1E0D0E002C0CC0FDD1F8A95E2F72C2BB0
:101800003D2BE901DC6821C1811549E59407A0F46D
:10181000C11588E5D80708F0B5C0C11526E5D2077F
:1018200008F0C6C08C2F0E94A60D8F71C82FD0E083
:10183000DC2FCC27D06209C181153AE5930708F463
:10184000A6C090568115904208F0B2C08D2F8F71BE
:101850000E94A60DDD27D0628F71D82BF6C0853A85
:10186000910509F4A8C0863A910509F0A7C0C2E81D
:10187000D0E4EBC0883A910509F4A3C0893A9105F8
:1018800009F4A2C08A3A910509F4A1C08B3A9105E6
:1018900009F4A0C08C3A910509F49FC08B3B9105D7
:1018A00009F49EC08C3B910509F49DC08D3A9105C9
:1018B00009F49CC0803B910509F49BC08E3A9105C8
:1018C00009F49AC08F3A910509F499C0813B9105BA
:1018D00009F498C0823B910509F497C0833B9105B8
:1018E00009F496C0843B910509F495C0853B9105A8
:1018F00009F494C0863B910509F493C0873B910598
:1019000009F492C0883B910509F491C0893B910587
:1019100009F490C08D3B910509F48FC08E3B910571
:1019200009F48EC08A3B910509F48DC0C0E0D4E46F
:101930008CC00E946A0BEC0188C09927D3FF03C0BA
:10194000EC01D86C82C0EC01D06C7FC0DF70D06A33
:101950007CC0DC2FCC27C16FD06A77C040E2249FC7
:1019600090011124C1E0D0E002C0CC0FDD1F8A95A8
:10197000E2F7C22BD32BDA6868C0D82FCC27C46F0C
:10198000D06A63C0DC2FCC27C06FD06A5EC08F7076
:101990000E94A60D94E0D695C7959A95E1F7CF7071
:1019A000D0E0DC2FCC27D06A8F70806EC82B4DC062
:1019B000C0E0D0E04AC0C1E8D0E447C0C3E8D0E40A
:1019C00044C0C2EED4E441C0C9EED4E43EC0CAEE85
:1019D000D4E43BC0C5EBD4E438C0C6EBD4E435C096
:1019E000C3EBD4E432C0C4EBD4E42FC0C7EBD4E4DF
:1019F0002CC0CCECD4E429C0CDECD4E426C0C3E8A0
:101A0000D5E423C0CAE8D5E420C0C2E9D5E41DC0AE
:101A1000C4E9D5E41AC0C1E2D6E417C0C3E2D6E4F3
:101A200014C0C4E2D6E411C0C5E2D6E40EC0C6E2DA
:101A3000D6E40BC0C7E2D6E408C0CFE6D4E405C0C4
:101A4000C0E7D4E402C0CAE2D6E4CE01DF91CF9170
:101A500008958238910549F1B0F48133910509F474
:101A600058C048F48932910509F44EC08A32910574
:101A700009F454C008958533910509F440C08933B1
:101A8000910599F00895833E910529F138F4803E3F
:101A9000910591F0823E9105A1F00895863E910551
:101AA000F9F0873E910531F108952091630320FDFF
:101AB0003AC021FD38C008958091630380FD35C090
:101AC00032C08091630382FF32C08091630384FD42
:101AD00030C083EE39C08091630382FD28C0F5CF0A
:101AE0008091630383FF27C08091630384FD21C03D
:101AF00087EE2AC08091630383FD1DC0F5CF8091DE
:101B0000630385FD1AC01BC08091630385FD17C068
:101B100014C08091630386FD14C015C080916303D7
:101B200086FD11C00EC080EE0FC089E30DC082EEAD
:101B30000BC080E009C086EE07C089E205C085E3DE
:101B400003C08AE201C081E390E0089590916303AD
:101B500092FF0DC0282F2871283019F4877F8460E8
:101B600006C0282F2471243011F48B7F886093FFE6
:101B70000DC0282F2871283119F4877E846106C092
:101B8000282F2471243111F48B7E886194FD877E87
:101B90000895E82FF0E0EE0FFF1FE75AFE4F808117
:101BA000918108950895ACE2B1E041E050E026E073
:101BB0002A0F8D91E82FE295EF70F0E031A18F7040
:101BC000BA0102C0660F771F8A95E2F7CB01962F04
:101BD0009095932391A392A1892B82A32A13E9CFF5
:101BE000ADE1B1E041E050E02FE02A0F8D91E82F08
:101BF000E295EF70F0E031A18F70BA0102C0660F7C
:101C0000771F8A95E2F7CB01962F9095932391A3A6
:101C100092A1892B82A32A13E9CFE5E6F1E0A9E599
:101C2000B1E0119211921D921D9271E0E137F70718
:101C3000C1F786E00E94B50E0C942E095F926F9258
:101C40007F928F929F92AF92BF92CF92DF92EF924C
:101C5000FF920F931F93CF93DF930CE211E0A5E661
:101C6000B1E0612CEE24E394F12C5D018D909C9009
:101C7000119711961C921E92E80189918E01E82F0E
:101C8000E295EF70F0E091A18F70A70101C0440FC1
:101C90008A95EAF7892F842B81A382A1542E509430
:101CA000852182A3D0EADA95F1F78DE1C82E81E093
:101CB000D82E80E090E0E60179906E01272D2295E4
:101CC0002F7030E0E90168A12D913C91119770E0EF
:101CD000D72DDF7002C075956795DA95E2F760FD44
:101CE00008C0B701082E02C0660F771F0A94E2F7FA
:101CF00002C060E070E0262B372B11963C932E93A8
:101D000001968F309105B9F681A1D52DD823D1A3A5
:101D100082A1482B42A3129681E0F50120813181F6
:101D20008216930609F480E0682AF1E0A137BF0724
:101D300009F09BCF262D46E069E571E085E691E04C
:101D40000E94B60E0E943609862DDF91CF911F9119
:101D50000F91FF90EF90DF90CF90BF90AF909F904A
:101D60008F907F906F905F9008950895FF920F93EA
:101D70001F93CF93DF93F82E092F162FD72FC42F41
:101D8000222349F081E0809373010E94F322909313
:101D9000720180937101809173018823D9F0809141
:101DA0007101909172010E94FF22069798F0EF2D29
:101DB000F02FA12FBD2F80E090E04C2F50E0841732
:101DC000950734F4219131912D933D930196F7CFEE
:101DD00010927301DF91CF911F910F91FF900895A1
:101DE000CF92DF92EF92FF920F931F93CF93DF93E7
:101DF0007B01282F382FE82FF0E0F11006C0E75FB5
:101E0000F04F6491762F862F7BC00F2D10E046E0B7
:101E1000649FC0011124CFEFD0E0BE010E941F2AB1
:101E2000AB016BEA6403C001659F900D11248E0D18
:101E3000911D8E0D911D982F990F890FBE01601B6A
:101E4000710B6E9FD0016F9FB00D7E9FB00D11245E
:101E50009B2F8F9DB0011124672F77277E01E61AF3
:101E6000F70AEE9EB001EF9E700DFE9E700D1124DC
:101E70006E01C81AD108C09E7001C19EF00CD09EA0
:101E8000F00C11240F2D1127C01BD10BCE9F800108
:101E9000CF9F100DDE9F100D1124812F4230510570
:101EA00091F04CF441155105E1F041305105B9F480
:101EB000822F272F16C04430510569F044F0463078
:101EC000510579F00CC0822F2B2F912F0AC02B2F98
:101ED000932F872F06C08B2F922F212F02C08B2F7D
:101EE000972FE22FF0E0E75FF04F7491E82FF0E0DA
:101EF000E75FF04F6491E92FF0E0E75FF04F8491E6
:101F0000DF91CF911F910F91FF90EF90DF90CF90D5
:101F100008950895CF93DF93762FE901682F842FDA
:101F20000E94F00E798368838A83DF91CF910895B0
:101F300080916102282F269530E02115310519F492
:101F40008170826005C02532310524F0817088647B
:101F500080936102089588E090E00C94622ACF9308
:101F6000DF9300D000D0CDB7DEB7AB01BC01498311
:101F70005A836B837C830E94980F49815A816B81BD
:101F80007C8188E090E00F900F900F900F90DF9190
:101F9000CF910C94802AE1E6F2E083E08083118205
:101FA0008FEF828383831482608171818281938128
:101FB0000C94AF0F8091610280FF02C08695089556
:101FC00080E0089580916502833018F48F5F8093DC
:101FD000650260916102709162028091630290914A
:101FE00064020C94AF0F80916502882319F0815030
:101FF0008093650260916102709162028091630238
:10200000909164020C94AF0F6091040170E0809194
:10201000610280FF0AC08091780123E0829FC001A5
:1020200011248A599D4F0C94FA1480917701909154
:102030000301891780F7E82FF0E09F01220F331F7B
:10204000E20FF31FEA59FD4F1182108212828F5F57
:10205000F0CF9091610290FF16C09091770120918E
:102060000301921770F4E92FF0E0DF01AA0FBB1F04
:10207000EA0FFB1FEA59FD4F8183608342839F5F14
:10208000F0CF0C9404100895CF93DF9300D01F92EB
:10209000CDB7DEB79091610290FF0AC09E012F5F1D
:1020A0003F4F0E948A0F4B8169818A810E942910CB
:1020B0000F900F900F90DF91CF910895CF93DF9302
:1020C000EC01EC81F0E0EC5FF14F4491E1E6F2E0ED
:1020D000628181810E9444108C818F5F8C83DF91AB
:1020E000CF910895CF93DF93EC01E1E6F2E04381D5
:1020F00062818C810E9444108C818F5F8C83DF9180
:10210000CF9108950F931F93CF93DF9300D01F9229
:10211000CDB7DEB78C018091740181110AC09E0198
:102120002F5F3F4F4FEF6FEF0E948A0F8A8180939E
:102130007401F8018481813051F028F0823061F41B
:10214000409174010AC08091740140E007C0609121
:10215000740140E080E003C040E080E060E00E9465
:102160002910F801248130E0C901019663E070E094
:102170000E94332A84830F900F900F90DF91CF91AC
:102180001F910F910895AF92BF92CF92DF92EF927D
:10219000FF920F931F93CF93DF9300D01F92CDB781
:1021A000DEB7182FF62E042FE22E9091610290FFD9
:1021B0006EC0E92FE695AE2FB0E0AE5CBE4F8C91BD
:1021C000809380019E7F923061F49E012F5F3F4F8C
:1021D000812F0E948A0F4B8169818A810E94291078
:1021E00044C0823019F4009164023FC0863019F473
:1021F000109162023AC08930D9F38931B1F5E951C1
:102200008E2F8170D82EE695F0E0EC5FF04FA59010
:10221000B490C12CBB2460910201C61620F5EC2DB0
:10222000F0E0EA9DC001EB9D900DFA9D900D112408
:1022300070E00E941F2A812FD11002C0860F01C0BA
:10224000861B90917701E90FF11D9F01220F331F2B
:10225000E20FF31F9F012A593D4F402F6F2D0E941F
:102260008A0FC394D8CF0E94041010936202F09298
:10227000630200936402EE2051F06091610270915C
:10228000620280916302909164020E94AF0F0F90EE
:102290000F900F90DF91CF911F910F91FF90EF90D2
:1022A000DF90CF90BF90AF900895E1E6F2E091818A
:1022B000282F4381628188E0890F0C94C31081E04C
:1022C0000C945511E1E6F2E09181282F438162815F
:1022D00088EF890F0C94C31081E00C946211E1E641
:1022E000F2E0628128E0620F08F46FEF282F43814B
:1022F00081810C94C31081E00C946F11E1E6F2E04F
:10230000628128E0621B08F460E0282F438181810C
:102310000C94C31081E00C947E11E1E6F2E043815D
:1023200028E0420F08F44FEF282F628181810C943E
:10233000C31081E00C948D11E1E6F2E0438128E0C6
:10234000421B08F440E0282F628181810C94C31065
:1023500081E00C949C1120E00C94C310FF920F9329
:102360001F93CF93DF93EC01F12C0FEF10E06091FE
:102370000201F616E8F42091770130E02F0D311DAF
:10238000C901880F991F280F391F2A593D4F70E046
:10239000C8010E94332A962F8C814091640260917B
:1023A0006302F99E800D11240E948A0FF394DFCFFF
:1023B0000E9404109A818C8190FF02C08F5F01C03F
:1023C00081508C83DF91CF911F910F91FF900895E1
:1023D000BF92CF92DF92EF92FF920F931F93CF9312
:1023E000DF93FC01828180FF02C00FEF01C001E09A
:1023F00010E0809102011817E0F5C12ED12C8091D8
:102400007701E601C80FD11DCE01880F991FC80FB3
:10241000D91FCA59DD4F198218821A8234E0E32E7F
:10242000F12CB12C809176018B0D87FF03C0909128
:102430000201890F082E000C990BC816D90691F4D9
:10244000809164028E9DA0018F9D500D11245595A1
:102450004795559547959E01609163028091620270
:102460000E948A0FB00EF1E0EF1AF108D9F61F5F53
:10247000C0CF0E94041080917601013031F48111A7
:1024800002C080910201815007C090E001966091E6
:10249000020170E00E94332A80937601DF91CF9190
:1024A0001F910F91FF90EF90DF90CF90BF90089514
:1024B000CF938091770190910301891770F4E82FF1
:1024C000F0E09F01220F331FE20FF31FEA59FD4F87
:1024D0001182108212828F5FF0CFC0E06091020102
:1024E000C617B8F5EC2FF0E070E0CF010E94332A58
:1024F00040917701480F80917501082E000C990BCF
:1025000050E0E817F907C4F020910101022E000CF9
:10251000330B2E173F0784F09A01220F331F240F2D
:10252000351F2A593D4F40916402609163028091AA
:1025300062020E948A0F0BC0FA01EE0FFF1F4E0FBE
:102540005F1FFA01EA59FD4F118210821282CF5F9C
:10255000C5CF0E9404102091000180917501820F67
:102560008093750190910101920F909301011916CA
:102570005CF4082E000C990B4091020150E0415090
:102580005109841795071CF0219520930001CF91E4
:1025900008950F931F93CF93DF938C01FC018481E7
:1025A000958101968170992795838483C0E0D5E554
:1025B00080910201C817F8F42091770130E02C0FC8
:1025C000311DC901880F991F280F391F2A593D4F06
:1025D0004C2F4695F80184819581840F911D81705F
:1025E00040916402609163028D9F802D11240E94AE
:1025F0008A0FCF5FDDCFDF91CF911F910F910C94A8
:1026000004100F931F93CF93DF93EC0100E010E0D1
:1026100080910201282F30E00217130724F59091D2
:1026200077019801290F311DA901440F551F240F6F
:10263000351F2A593D4F869590E04C8108171907A0
:102640001CF4442331F002C0411103C040916402E4
:1026500001C040E060916302809162020E948A0F93
:102660000F5F1F4FD5CF0E9404102C8130E02F5FE9
:102670003F4F217033272C83DF91CF911F910F9112
:102680000895E1E6F2E080818E7F80836081718130
:10269000828193810E94AF0F109281012FEF80E71A
:1026A00092E0215080409040E1F700C000000C947F
:1026B0000410E1E6F2E080818E7F80831092810138
:1026C0002FEF80E792E0215080409040E1F700C07A
:1026D00000000C94041060916102669570E04BE07C
:1026E00050E085E091E00E944D2A892B19F481E0A9
:1026F000809381010E94F32290937A018093790163
:1027000008959091610290FF35C09170811102C0CF
:10271000926006C0853210F0986402C0880F982B32
:1027200090936102662351F06091610270916202A0
:1027300080916302909164020E94AF0F60916102E8
:10274000669570E04BE050E085E091E00E944D2AF4
:10275000892B19F01092810102C00E946B1381E055
:1027600080937C01409164026091630280916202D7
:102770000C94AB110895682F90916102969581E0B9
:10278000890F853208F081E00C94811381E00C946C
:10279000BB13682F9091610296958FEF890F09F412
:1027A00084E20C94811381E00C94C91361E00C94D1
:1027B0008113E1E6F2E080818160808386950C944C
:1027C000D6138091610280FD0C9441130C94D913AF
:1027D00060E00C94811380917F01811133C080915E
:1027E0003A02816080933A020E944921811104C01B
:1027F0000E94C3210E94CB0F0E94AB0F6093610225
:102800007093620280936302909364026E7F61F41E
:102810000E94CB0F0E94AB0F609361027093620223
:1028200080936302909364020E94980F109281013A
:102830008091610280FF03C086950E94E81381E0C9
:1028400080937F010895E1E6F2E0808181608083DA
:1028500086950C94E8131092810108950F931F93AD
:10286000CF93DF9380918101882309F48CC08091FC
:102870008001E0916102E695E81BE0937B018230E4
:1028800049F4F0E0E050F24FE491CE2FD0E00EE5B5
:1028900010E149C0863049F4F0E0E350F24FE49192
:1028A000CE2FD0E002E710E13EC0893051F4E6952A
:1028B000F0E0E650F24FE491CE2FD0E00EEA11E1C5
:1028C00032C08F3051F4E695F0E0E950F24FE491D8
:1028D000CE2FD0E008EE11E126C0853149F4F0E0BA
:1028E000EC50F24FE491CE2FD0E008E512E11BC08E
:1028F000883181F0833239F4E2EFFDE0C591D49163
:1029000002E810E110C0843251F4C4EFD1E001E0DC
:1029100013E109C0C8EED3E009EC12E104C0C0ED38
:10292000D7E009E81FE080917C01882389F01092AC
:102930007C010E94F3229E0120953095820F931F07
:1029400090937A018093790110927E0110927D011B
:102950008091790190917A010E94FF228C179D0746
:1029600090F0E0917901F0917A01CE0FDF1FD093C2
:102970007A01C093790189E791E0F801DF91CF9165
:102980001F910F910994DF91CF911F910F9108959D
:1029900021B3342F3095232331B3432B3FB7F89421
:1029A000FC01680F791FE617F70789F0819198E01D
:1029B00041BB000000C087FF21BB880F000000C0A2
:1029C00000C000C021BB00C09A9591F7ECCF3FBF7B
:1029D000089520B3242B20BB9B01220F331F620FCD
:1029E000731F0E94C81487EC90E00197F1F700C0B4
:1029F0000000089541E00C94E9140F931F93CF93C6
:102A0000DF93C62FD42F022FFC0182818823C9F0C7
:102A1000609384010E94F32290938301809382014A
:102A200080E28C0F883008F050C0C77081E001C090
:102A3000880FCA95EAF7DF91CF911F910F910C94FF
:102A40009B1810918401161330C0809182019091DF
:102A500083010E94FF22883C910538F5C0E2CD0F2A
:102A60001D17B9F080E2810F883040F4177081E0C3
:102A700001C0880F1A95EAF70E94A218C83048F4DE
:102A800081E09D2F977001C0880F9A95EAF70E9408
:102A90009B18802F0E948818C830B8F4D77081E046
:102AA00001C0880FDA95EAF70AC080E28C0F8830FF
:102AB00060F4C77081E001C0880FCA95EAF7DF9122
:102AC000CF911F910F910C94A218DF91CF911F917C
:102AD0000F9108959C01CB01203F4CE53407F9F09C
:102AE00078F4283DFCE53F07B9F0293D4CE5340773
:102AF00011F1273D3C4531F526E241EE61EE1EC065
:102B0000223FFCE53F0799F070F0233F3C45D1F4AC
:102B100027E245EE66EE12C027E245EE0EC026E241
:102B200041EE60EE0BC027E245EE64EE07C026E200
:102B300041EE62EE03C028E241E065EE0E94FD1422
:102B400080E00895FC018281882319F010928401AD
:102B5000089581E0089590938A01809389010895F2
:102B6000E0918901F0918A01309721F00190F08184
:102B7000E02D099480E00895E0918901F0918A01A7
:102B8000309799F020911C01222359F02091630382
:102B900027FF07C0DC012C9111962C93119725E09B
:102BA0002C930280F381E02D0994089520918701F0
:102BB000309188018217930771F090938801809378
:102BC0008701E0918901F0918A01309721F0068018
:102BD000F781E02D099408952091850130918601B7
:102BE0008217930771F09093860180938501E0919D
:102BF0008901F0918A01309721F00084F185E02D60
:102C00000994089585B7806885BF85B7806885BFBA
:102C10000895089508950C940A1608950C940D16BD
:102C20000E9402160E9409160C940B1681E008956A
:102C30000E94EA220E94D30D0E9473230E94EB138C
:102C40000C940E164F925F927F928F929F92AF924A
:102C5000BF92CF92DF92EF92FF920F931F93CF9389
:102C6000DF93CDB7DEB72A970FB6F894DEBF0FBE5D
:102C7000CDBF0E941E0E0E941616811111C08FEF4B
:102C800089838A831B820E94F3228160782F9D832F
:102C90008C8349815A816B818D810E94DE1657C0D9
:102CA0009CE8C92E91E0D92E00E010E0AA24A3945C
:102CB000B12C702E802F0E94C90D4C01F60141905D
:102CC00051906F01482659264114510431F40F5F89
:102CD0001F4F0630110569F7D2CF80913A0281FD6E
:102CE0000E94D20D20E030E07501022E02C0EE0CF1
:102CF000FF1C0A94E2F7C70184219521892B09F171
:102D00002E837F828E209F2091E0892809F490E015
:102D100098870E94F3228160782F9A8789874E8155
:102D20005F8168858A850E94DE16000F111FF801F9
:102D3000E457FE4F80819181E826F926F182E082F6
:102D400006C02F5F3F4F2F30310571F6C0CF109175
:102D50008B010E94B0151817D9F00E94B01580930E
:102D60008B012A960FB6F894DEBF0FBECDBFDF9160
:102D7000CF911F910F91FF90EF90DF90CF90BF9078
:102D8000AF909F908F907F905F904F900C943A09F6
:102D90002A960FB6F894DEBF0FBECDBFDF91CF915C
:102DA0001F910F91FF90EF90DF90CF90BF90AF9069
:102DB0009F908F907F905F904F900895CF93DF9377
:102DC000CDB7DEB72B970FB6F894DEBF0FBECDBFE1
:102DD0004F83588769877A878B87DE01119686E053
:102DE000FD0111928A95E9F785E0FE013796019081
:102DF0000D928A95E1F749815A816B817C818D81A1
:102E00009E810E948E1D2B960FB6F894DEBF0FBEDA
:102E1000CDBFDF91CF910895FC01808191810E9407
:102E20005A200895882309F413C1682F8238C1F409
:102E30000E94B01581FD0CC169E380911001909151
:102E400011010E942A220E94E5202FEF81EE94E0DA
:102E5000215080409040E1F700C0000069E319C0B4
:102E60008338F9F40E94B01580FDF2C063E58091CB
:102E70001001909111010E942A220E94E5202FEF5B
:102E800081EE94E0215080409040E1F700C00000C6
:102E900063E580911001909111010E9435220C94FC
:102EA000E5208438C1F40E94B01582FDD1C067E4EA
:102EB00080911001909111010E942A220E94E52028
:102EC0002FEF81EE94E0215080409040E1F700C068
:102ED000000067E4DECF8CEF860F813A38F48091F2
:102EE0001001909111010E942A22D9CF80E2860F11
:102EF000883048F4677081E001C0880F6A95EAF76E
:102F00000E949C20CCCF8BE5860F833070F4653A0D
:102F100029F0663A31F083E890E005C081E890E05E
:102F200002C082E890E00C94D61588E5860F8731C0
:102F300008F08EC0683A09F445C0693A09F445C002
:102F40006A3A09F445C06B3A09F445C06C3A09F491
:102F500045C06B3B09F445C06C3B09F445C06D3A74
:102F600009F445C0603B09F445C06E3A09F445C018
:102F70006F3A09F445C0613B09F445C0623B09F46E
:102F800045C0633B09F445C0643B09F445C0653B5B
:102F900009F445C0663B09F445C0673B09F445C0E8
:102FA000683B09F445C0693B09F445C06D3B09F431
:102FB00045C06E3B09F445C06A3B09F445C080E05A
:102FC00090E044C082EE90E041C089EE90E03EC0C7
:102FD0008AEE90E03BC085EB90E038C086EB90E055
:102FE00035C083EB90E032C084EB90E02FC087EBDC
:102FF00090E02CC08CEC90E029C08DEC90E026C0D5
:1030000083E891E023C08AE891E020C082E991E062
:103010001DC084E991E01AC081E292E017C083E20A
:1030200092E014C084E292E011C085E292E00EC00A
:1030300086E292E00BC087E292E008C08FE690E063
:1030400005C080E790E002C08AE292E00C94EC15A3
:103050000895882309F45BC0682F823879F40E94B0
:10306000B01581FF54C069E3809110019091110166
:103070000E942A220E94E52069E310C08338B1F43F
:103080000E94B01580FF43C063E5809110019091CC
:1030900011010E942A220E94E52063E5809110011F
:1030A000909111010E9435220C94E520843879F426
:1030B0000E94B01582FF2BC067E4809110019091AF
:1030C00011010E942A220E94E52067E4E7CF8CEFDD
:1030D000860F813A18F380E2860F883048F46770D3
:1030E00081E001C0880F6A95EAF70E94A220DCCF38
:1030F0008BE5860F833020F480E090E00C94D615A9
:10310000685A673120F480E090E00C94EC15089543
:10311000CF93C82F0E941217C93349F42FEF83ECC5
:1031200099E0215080409040E1F700C000008C2FD2
:10313000CF910C942918882321F00E949C200C9494
:10314000E5200895882321F00E94A2200C94E52018
:1031500008954F925F926F927F92BF92CF92DF92CB
:10316000EF92FF920F931F93CF93DF937C01062F73
:10317000C72FFC01D581D295DF70128111110E94F9
:10318000B9200E949220882379F0112369F080E20F
:10319000800F883048F082E00E9430210E94922007
:1031A00091E0B82EB92601C0B12CCC2EC2948FE08C
:1031B000C822D12CF601E859FF4F0C94472A8C2FD6
:1031C000807FCF70882311F0C295C07F112399F0C2
:1031D000CC2309F461C180E2800F883010F0011126
:1031E00004C08C2F0E949C2003C08C2F0E94AC2016
:1031F0000E94E52051C1802F0E942918CC2309F498
:1032000070C180E2800F883010F0011104C08C2F53
:103210000E94A22003C08C2F0E94B2200E94E520B1
:1032200060C18C2F807FCF70803211F0C295C07F3B
:10323000002319F00130C9F022C0112371F0DD2301
:1032400041F0D13031F40E94CC208C2B0E94D2204E
:1032500048C10E94CC208C2B1DC0DD2319F0D13039
:1032600009F43FC10E94DB201AC0112321F0D6309F
:1032700008F037C10EC0D53008F033C110C011239B
:1032800061F0DD2331F0F701858180FF05C18F708A
:1032900085838C2F0E949B1824C1D1110EC18C2FC5
:1032A000BAC08C2F837009F04BC0111126C1202F9A
:1032B000229526952770220F220F602F6F70862F80
:1032C00090E0A0E0B0E02C013D01022E04C0440CCF
:1032D000551C661C771C0A94D2F704FF10C08FE0BF
:1032E00090E0A0E0B0E004C0880F991FAA1FBB1FA8
:1032F0002A95D2F780959095A095B09503C080E06F
:1033000090E0DC01C695C695C370D0E0BC01CD014C
:103310006429752986299729C230D10559F0C3300F
:10332000D10559F0219719F00E94D31EE6C00E94E2
:10333000C11EE3C00E94E51EE0C00E94BF1EDDC0AA
:10334000112319F08C2F817001C08695882309F410
:10335000D4C0202F229526952770220F220F602F90
:103360006F70862F90E0A0E0B0E02C013D01022EAE
:1033700004C0440C551C661C771C0A94D2F704FF49
:1033800010C08FE090E0A0E0B0E004C0880F991F6B
:10339000AA1FBB1F2A95D2F780959095A095B0954E
:1033A00003C080E090E0DC01C695C695C370D0E014
:1033B000BC01CD016429752986299729C230D10520
:1033C00059F0C330D10559F0219719F00E94991F87
:1033D00094C00E94871F91C00E94AB1F8EC00E94A4
:1033E000FA1E8BC0802F90E0FC01E05EF109E53110
:1033F000F10508F04DC0E858FF4F0C94472A0F70B4
:103400008C2F8F71112321F00E94201F802F42CF1B
:103410000E94411F802F0E94A21863C0112341F017
:10342000D53008F05EC08C2F8F710E94661F59C086
:10343000D63008F056C0F7CF112339F08C2F8F719A
:103440000E94201F4EC01123C9F38C2F8F710E9440
:10345000411F47C0112329F08C2F8F710E940B1F31
:1034600040C00E94061F3DC0112349F0CF718C2F30
:103470000E94201F63E08C2F0E941B2132C081E03C
:103480000E943021D23068F182E00E94302129C0B0
:10349000112331F0DD2391F2802F0E94121721C0F9
:1034A000DD2399F2093349F4FFEF23EC89E0F15071
:1034B00020408040E1F700C00000802F0E942918C2
:1034C00010C04C2F4F70602FC7010E94C9080E9486
:1034D000321E17C04C2F4F70602FC7010E94570B30
:1034E00010C098E0C916D10441F05CF0FAE0CF1AA0
:1034F000D10822E0C216D10420F40E94B0150E9427
:103500003A09BB20F1F00E948E2080FD1AC0F7011D
:1035100012820E9488200E94201FC7010E94AF1AB9
:103520000E948820DF91CF911F910F91FF90EF9023
:10353000DF90CF90BF907F906F905F904F900C94F2
:10354000411FDF91CF911F910F91FF90EF90DF907E
:10355000CF90BF907F906F905F904F9008950F93A2
:103560001F93CF93DF93EC01888199812B813C815C
:10357000232BB9F09F3F11F48F3F99F0CE010E94A9
:103580004C09882371F0688179818A810E946520C5
:103590008C010E94BD1F0E94BE1EB801CE010E9478
:1035A000A918DF91CF911F910F9108950E94B92022
:1035B0000E94C9200C94E520809110019091110186
:1035C0000E9440220C94D61A0E94A9200C94DC1A66
:1035D000E92FE295EF70F0E03297EE30F105B0F4AC
:1035E000E357FF4F0C94472A803F91F018F4803E38
:1035F00068F40EC0843F51F40BC0803E48F0813F18
:1036000029F406C093FB882780F9089580E0089587
:1036100081E008950E945A200E94E81A0895CF93ED
:10362000DF9300D000D01F92CDB7DEB70F900F9080
:103630000F900F900F90DF91CF910895CF93DF936C
:1036400000D000D000D0CDB7DEB726960FB6F894E4
:10365000DEBF0FBECDBFDF91CF9108951F93CF93F3
:10366000DF93C091990116E080919A01C81799F0F3
:10367000D0E01C9FF0011D9FF00D1124E556FE4F78
:103680004081518162817381848195810E941E1BDA
:103690002196C770E9CFDF91CF911F910895409196
:1036A000CB015091CC016091CD017091CE01809100
:1036B000CF019091D0010C941E1B8091D001829576
:1036C0008F7009F054C08091CD01882309F44FC058
:1036D00080919901A0919A016091CB017091CC01E8
:1036E0004091CE015091CF01B6E08A1709F43FC056
:1036F00090E041155105C1F17F3F11F46F3FA1F1F9
:10370000B89FF001B99FF00D1124E556FE4F2181BD
:1037100072132AC02081621327C02281211124C084
:10372000238134812417350710F421503109241BDB
:10373000350B283C3105C0F42091D0012F70206159
:103740002093D00126E0289FF001299FF00D11243D
:10375000E056FE4F80818F70806180838BEC91E01A
:103760000E94AF1A0C942E1B01968770BECF08954D
:10377000CF92DF92EF92FF920F931F93CF93DF933D
:10378000CDB7DEB762970FB6F894DEBF0FBECDBFE0
:103790008C0185E0F801DE011D9601900D928A955D
:1037A000E1F7D8014C9111965C91119712966C91AA
:1037B00012971396CD90DC9014973091CB017091B5
:1037C000CC018091CE019091CF01009709F46BC19B
:1037D0007F3F19F43F3F09F466C1E090CD01EE2030
:1037E00009F4C0C02091D001C816D90628F0F6010E
:1037F000E81BF90BCF0104C0809590958C0D9D1DA1
:10380000FF24F394883C910578F0F12C207F09F097
:10381000C6C07C2DD98AC88A89890E940F1B8BEC6F
:1038200091E00E94AF1AB1C0822F807F09F046C09C
:10383000751314C0341312C0611110C02F702061B1
:103840002093D0010E944F1B8BEC91E00E94AF1A95
:103850008091D001D80115968C932EC0CD2819F1F6
:103860005F3F11F44F3FF9F0F62E61111CC08091BB
:10387000990120919A0136E0821709F45AC090E02C
:10388000389FF001399FF00D1124E556FE4F7181EC
:10389000571306C07081471303C07281711103C0B2
:1038A00001968770E9CFF62E662309F427C180912F
:1038B000D00181608093D001F12C20C1751308C024
:1038C000341306C0611104C08091D001D801C3C077
:1038D0004D875E878D859E856A8B0E940A1B6A894B
:1038E0008823E1F16623D1F12091D001822F8295C6
:1038F0008F7090E0029774F08091CB019091CC0191
:1039000098878F831986DB86CA862C87CE01079617
:103910000E94AF1A86E0F801ABECB1E001900D9285
:103920008A95E1F70E945D1B0E944F1BFF24F394D0
:10393000E5C04D875E878D859E850E945A20292F80
:1039400022952F7030E0223031050CF0CBC09F70F3
:1039500009F0C5C0805E883008F4D0C0C8010E945C
:10396000AF1AE4CFC816D90608F453C0F601E81B15
:10397000F90BCF01883C910508F450C0F12C7C2D47
:10398000D98AC88A89890E940F1BEBECF1E086E096
:10399000DF011D928A95E9F70E944F1BAFC0751396
:1039A00014C0341312C0611110C08091D001F8010D
:1039B0008583C8010E94AF1A86E0EBECF1E0DF01DD
:1039C0001D928A95E9F7FE2C99C04D875E878D85FB
:1039D0009E856A8B0E940A1B6A89882309F4BECFE0
:1039E000662309F4BBCF2091D001822F82958F707E
:1039F00090E002970CF48ECF8091CB019091CC0196
:103A00009A8389831B82DD82CC822E83CE0101962C
:103A10007FCF809590958C0D9D1DACCFF62E6623A3
:103A200009F49CCF75132EC034132CC02091D00103
:103A300020FD1FC0822F82958F70D9F0D801159676
:103A40002C9315978F3049F08F5F982F9295907F28
:103A5000822F8F70892B15968C93C8010E94AF1A04
:103A600086E0F801ABECB1E001900D928A95E1F7A8
:103A700093CF86E0F801ABECB1E001900D928A950E
:103A8000E1F73CC04D875E878D859E850E940A1BAD
:103A9000811140CF8091D00181608093D001C80115
:103AA0000E94AF1A2BC0662309F458CF4D875E875A
:103AB0008D859E850E940A1BF82E882309F44ECF1F
:103AC00086E0F801ABECB1E001900D928A95E1F748
:103AD0008BEC91E00E940C170E945D1B5DCF811161
:103AE00039CF0CC0243031050CF038CF9F7009F469
:103AF00031CFF8019581907F09F02CCF8F2D629600
:103B00000FB6F894DEBF0FBECDBFDF91CF911F91EE
:103B10000F91FF90EF90DF90CF9008951F93CF9378
:103B2000DF93CDB7DEB72C970FB6F894DEBF0FBE8C
:103B3000CDBF4F83588769877A878B879C87CE0153
:103B400007960E94B81B882369F08F8198852A8583
:103B50003B85232BF1F19F3F09F063C08F3F09F0B4
:103B600060C037C086E0FE013796DE0111960190F5
:103B70000D928A95E1F76F817885EA85FB8530970C
:103B800041F17F3F11F46F3F21F120919A0130E024
:103B9000C9010196877099274091990150E08417D7
:103BA000950709F447C069837A83FD83EC8396E027
:103BB000929FD001939FB00D1124A556BE4FFE01D8
:103BC000319601900D929A95E1F780939A010E94A7
:103BD0002E1B16E08091990190919A018917C1F1ED
:103BE000189FC001112485569E4F0E94B81B882340
:103BF00079F1E09199011E9FF0011124E556FE4FE5
:103C00004081518162817381848195810E941E1B54
:103C10008091990190E0019687709927809399018E
:103C2000D9CF4F81588569857A858B859C850E947F
:103C30001E1BCFCF0E94E41A10929A011092990194
:103C4000EBECF1E086E0DF011D928A95E9F7C1CF48
:103C50002C960FB6F894DEBF0FBECDBFDF91CF918B
:103C60001F910895EF92FF920F931F93CF93DF93CD
:103C70008C01892B09F46CC0F12CEE24E394E8014B
:103C80002196F8018491843740F4843008F051C0C3
:103C9000813081F0823019F15BC0853709F444C06E
:103CA000A8F19CE7980F903708F052C08F770E94D8
:103CB000291841C00E5F1F4FFE01C49180E28C0F96
:103CC000883048F4C7708E2D01C0880FCA95EAF776
:103CD0000E94BC2014C08C2F0E9412172DC00E5FB2
:103CE0001F4FFE01C49180E28C0F883058F4C770DA
:103CF0008E2D01C0880FCA95EAF70E94C2200E944B
:103D0000E5201AC08C2F0E94291816C00E5F1F4F85
:103D1000FE01C491CC2381F08FE99FE00197F1F778
:103D200000C00000C150F6CF0E5F1F4FFE01F4909F
:103D300003C00E9412178E018F2D882309F49FCF94
:103D4000EFE9FFE03197F1F700C000008150F5CFB7
:103D5000DF91CF911F910F91FF90EF9008950895FB
:103D60000C94AF1E0E94B01E609311027093120259
:103D700080931302909314020C94D61A08950C9415
:103D8000B21E0F931F930091110210911202209105
:103D9000130230911402602B712B822B932B1F91F5
:103DA0000F910C94B21E0F931F930091110210916A
:103DB0001202209113023091140260237123822396
:103DC00093231F910F910C94B21E0F931F93009198
:103DD00011021091120220911302309114026027F7
:103DE0007127822793271F910F910C94B21E08957B
:103DF0000C94F71E0E94F81E60930D0270930E0241
:103E000080930F02909310020C94D61A60E070E039
:103E1000CB010C94FA1E0F931F9341E050E060E039
:103E200070E08A019B0104C0000F111F221F331F85
:103E30008A95D2F7C901B8011F910F910C94FA1E0F
:103E40000F931F9341E050E060E070E004C0440F26
:103E5000551F661F771F8A95D2F780910D029091AA
:103E60000E02A0910F02B09110028A019B01082B53
:103E7000192B2A2B3B2BC901B8011F910F910C94D0
:103E8000FA1E0F931F9341E050E060E070E004C021
:103E9000440F551F661F771F8A95D2F7409550959E
:103EA0006095709580910D0290910E02A0910F0285
:103EB000B09110028A019B01082319232A233B2376
:103EC000C901B8011F910F910C94FA1E0F931F9313
:103ED00041E050E060E070E004C0440F551F661FF1
:103EE000771F8A95D2F780910D0290910E02A091D2
:103EF0000F02B09110028A019B01082719272A2777
:103F00003B27C901B8011F910F910C94FA1E0F9322
:103F10001F9300910D0210910E0220910F0230911B
:103F20001002602B712B822B932B1F910F910C94FD
:103F3000FA1E0F931F9300910D0210910E02209113
:103F40000F023091100260237123822393231F916B
:103F50000F910C94FA1E0F931F9300910D02109174
:103F60000E0220910F0230911002602771278227E4
:103F700093271F910F910C94FA1E08952FE0929FA2
:103F8000800D1124A82FA695A695A695877051E0BF
:103F900001C0550F8A95EAF785E0A89FD00111244A
:103FA00020E030E070E0F901EA0FFB1FEF52FE4F16
:103FB0004081CB01022E02C0969587950A94E2F7C4
:103FC00081709927819584278523842780832F5F9B
:103FD0003F4F2530310539F708952FE0929F800D2E
:103FE0001124682F669566956695982F977085E0E1
:103FF000689FB001112440E050E080E0FA01E60F34
:10400000F71FEF52FE4F208130E0092E02C0369597
:1040100027950A94E2F721703327042E01C0220F5E
:104020000A94EAF7822B4F5F5F4F4530510531F715
:104030000895BF92CF92DF92EF92FF920F931F935A
:10404000CF93DF938C01C0901102D0901202E090C8
:104050001302F090140280910D0290910E02A09133
:104060000F02B0911002C82AD92AEA2AFB2ACFE10E
:10407000D0E0D701C6010C2E04C0B695A795979540
:1040800087950A94D2F780FF07C0BC2EB8018C2F09
:104090000E94720B019719F4219758F7B12C8B2DC0
:1040A000DF91CF911F910F91FF90EF90DF90CF9014
:1040B000BF900895CF93DF93EC010E941920BE01B9
:1040C0000E94720BDF91CF9108951F93CF93DF93DE
:1040D000EB0190919801992321F0CB010E945A2085
:1040E00013C0882349F0CB010E941920182F682F94
:1040F000CE010E94BE1F04C0CB010E94ED1F182FED
:10410000BE01812F0E94720BDF91CF911F91089504
:104110008091150285958595859508958091150264
:104120008770089590911502977081E009F480E0FE
:10413000089580913902089590913902892B8093D6
:10414000390208958095909139028923809339022C
:10415000089510923902089590913802892B809326
:10416000380208958095909138028923809338020F
:10417000089510923802089590913702892B809308
:1041800037020895809590913702892380933702F2
:1041900008951092370208958091160208950895A7
:1041A0000C94CF2090911602981721F0809316025C
:1041B0000C94D020089580911602882329F0109243
:1041C000160280E00C94D0200895E0911001F09147
:1041D0001101809139028083E0911001F091110169
:1041E000908180913802892B8083E0911001F091B9
:1041F0001101908180913702892B80838091160272
:10420000882381F0E0911001F09111019081892BB8
:10421000808380911001909111010E94C52181112C
:104220000E94DB2080911001909111010C94BC152B
:1042300008950C94182198E0899F90011124262B51
:10424000209315020E94201F809115028595859567
:1042500085950C9419211092150280E00C94192177
:10426000209115028095822380931502982F9770D4
:1042700079F430E0482F082E000C550B2417350731
:1042800039F08595859585950E94411F0C942B21C9
:10429000089580E090E00E94682A21E08D3E9E4FC4
:1042A00009F020E0822F089582E090E00C945A2AD1
:1042B00083E090E00C945A2A84E090E00C945A2A0F
:1042C000682F84E090E00C946E2AAB01BC018FE073
:1042D00090E00C94802AAB01BC0183E190E00C9447
:1042E000802A60E070E0CB010C946B2160E070E00C
:1042F000CB010E9465210C9471216DEE7EEF80E070
:1043000090E00E948C2A60E082E090E00E946E2A99
:1043100060E083E090E00E946E2A109211021092F9
:104320001202109213021092140260E084E090E0F6
:104330000E946E2A60E085E090E00E946E2A60E0B4
:1043400086E090E00E946E2A6FEF87E090E00E9486
:104350006E2A40E050E0BA0188E090E00E94802A96
:1043600060E08DE090E00E946E2A40E050E0BA01EB
:1043700088E190E00E94802A60E087E190E00E945E
:104380006E2A0C9476210C947D21FC01329680914A
:104390001C01882331F08091630387FF02C09EE1F6
:1043A00001C096E080E0915028F021912223D9F3BA
:1043B0008F5FF9CF08959C01FC0132969FEF80E05A
:1043C0004191461789F09F3F19F4411101C0982F80
:1043D0008F5F8630A9F79F3F39F0F901E90FF11D92
:1043E00097FDFA95628308950895FC013296089628
:1043F0002081261301C010823196E817F907C1F712
:104400000895262F2695269526952E3168F4FC01D1
:10441000E20FF11D677021E030E001C0220F6A95C4
:10442000EAF78281282B22830895262F2695269548
:1044300026952E3170F4FC01E20FF11D677021E02A
:1044400030E001C0220F6A95EAF720958281282387
:104450002283089520911C01222329F020916303D7
:1044600027FD0C9401220C94DB2120911C012223B6
:1044700029F02091630327FD0C9415220C94F5215B
:1044800020911C01FC013296222331F080916303BC
:1044900087FF02C08EE101C086E0DF011D928A9590
:1044A000E9F7089508950C9452220E9453228091B6
:1044B0006903843009F439C010923B0220E488E19A
:1044C00090E00FB6F894A895809360000FBE2093FB
:1044D000600080E00E943A090E942B1480913C0207
:1044E00081110AC081E080933C0280916102817059
:1044F00080933D020E9459130E94532283B7817F0B
:10450000846083BF83B7816083BF7894889583B7C5
:104510008E7F83BF0FB6F894A89580916000886164
:1045200080936000109260000FBE08950895089572
:10453000CF930E9496220E941E0E0E949722C0E0F6
:104540008C2F0E94C90D892B29F4CF5FC630C1F78B
:1045500080E001C081E0CF91089508950C94AD22D0
:104560000E94E41A0E94B0150E943A0910923C027F
:1045700080913D0281110E9423140E946B130C94C0
:10458000AE221F920F920FB60F9211248F939F931A
:10459000AF93BF9380913B02811113C080915F0361
:1045A00090916003A0916103B09162034196A11DB7
:1045B000B11D80935F0390936003A0936103B09358
:1045C0006203BF91AF919F918F910F900FBE0F909B
:1045D0001F90189582E084BD93E095BD9AEF97BD3A
:1045E00080936E0008952FB7F89480915F039091A7
:1045F0006003A0916103B09162032FBF0895CF9231
:10460000DF92EF92FF920F931F932FB7F894409190
:104610005F035091600360916103709162032FBF4B
:104620006A017B01EE24FF248C0120E030E0C016FB
:10463000D106E206F30610F4415051099A01281BF5
:10464000390BC9011F910F91FF90EF90DF90CF9030
:10465000089578941F920F920FB60F9211248F93A2
:104660009F93AF93BF9380915F0390916003A0915C
:104670006103B09162030196A11DB11D80935F0398
:1046800090936003A0936103B0936203BF91AF91D5
:104690009F918F910F900FBE0F901F90189581E002
:1046A0008093E00080E28093D8001092C9008FE1EF
:1046B0009EE40197F1F700C0000087E090EBDC0179
:1046C0008093720390937303A0937403B093750364
:1046D0009CE088E10FB6F894A895809360000FBE27
:1046E00090936000FFCF0E944921811102C00E9477
:1046F000C3210E94542180933A020E945C2190E0E1
:1047000090936403809363030E945821682F70E0A4
:1047100080E090E00C94BF1E80915E0208950895A1
:1047200008950895CF93DF93EC010E9466258230AF
:1047300011F08430D9F580911C01882339F08091E3
:10474000630387FF03C060E282E002C068E081E0AB
:104750008093E9008FEF9091E800815095FD06C0AD
:1047600095ED9A95F1F700008111F5CF8091E80061
:1047700085FF1CC080911C01811105C040E050E004
:1047800068E070E003C070E040E050E0CE010E94BD
:1047900083258091E8008E778093E80080E2FE0117
:1047A000AEE3B2E001900D928A95E1F7DF91CF91EF
:1047B000089580916803811109C00E9418270E9402
:1047C00075278091E20084608093E2000895109242
:1047D00068030895089508950C94B02242E061ECB6
:1047E00081E00E94922642E261EC82E00C949226E3
:1047F00080916B03833009F460C030F4813071F034
:10480000823009F499C008958A3009F485C08B304C
:1048100009F46BC0893009F0A7C020C080916A03F9
:10482000813A09F0A1C08091E800877F8093E80079
:1048300080916E0390916F03892B21F460E28EE3E7
:1048400092E003C060E080E090E070E00E94CE253E
:104850008091E8008B778093E800089580916A0347
:10486000813209F081C080916E0390916F030297AD
:1048700008F07AC08091E800877F8093E8008091FB
:10488000E80082FD05C0809169038111F8CF6CC0FA
:104890002091F3008091F20090E0922B029729F48E
:1048A0008091F1008B7F813021F48091F100809321
:1048B0005E028091E8008B7753C080916A03813A51
:1048C00009F052C080916E0390916F03892B09F01B
:1048D0004BC08091E800877F8093E8008091E800DA
:1048E00080FFFCCF80911C0136C080916A03813229
:1048F000D9F580916E0390916F03892BA9F5809172
:10490000E800877F8093E8000E94C72680916C03AF
:1049100080931C010C94E41A80916A03813221F582
:104920008091E800877F8093E8000E94C7268091ED
:104930006D0380935F02089580916A03813AA1F428
:104940008091E800877F8093E8008091E80080FFF5
:10495000FCCF80915F028093F1008091E8008E7718
:104960008093E8000C94C726089584B7877F84BF9E
:104970000FB6F894A89580916000886180936000DC
:10498000109260000FBE80E8809361001092610079
:104990000E9410160E9418270E9475278091E2003D
:1049A00084608093E20078940E94042A0E94181682
:1049B00082E191E00E94AB1580916903853069F432
:1049C0000E945522809167038823B1F30E949822A8
:1049D000882391F30E946D25EFCF0E9422160E943A
:1049E0002E14EACF0C94F424292F332723303105D9
:1049F000C9F064F42130310581F02230310509F02D
:104A00004CC08BE390E02FE230E14BC02132310506
:104A100021F12232310589F140C082E190E02AE69D
:104A200030E13FC099278130910571F02CF4892B3A
:104A3000A1F5EBE2F0E10DC08230910541F0039762
:104A400061F5E9E0F0E105C0EBE1F0E102C0EFE083
:104A5000F0E1849190E09F0124C06115710541F05F
:104A600061307105D1F489E090E02AE530E119C0A8
:104A700089E090E021E430E114C06115710541F056
:104A80006130710551F48BE390E02CE730E109C00F
:104A900080E490E027EB30E104C080E090E020E08B
:104AA00030E0FA013183208308950895CF93C82F11
:104AB0000E945525C0936002CF91089580916903AB
:104AC000843011F081E0089582E0089580916002C1
:104AD000811102C00C945E25089580E189BD82E1B8
:104AE00089BD09B400FEFDCF8091D8008F7D8093F1
:104AF000D8008091E00082608093E0008091E00027
:104B000081FDFCCF0895CF92DF92EF92FF920F9339
:104B10001F93CF93DF93EC018B016A010E94E6267D
:104B2000811133C0C114D10439F0F6018081918123
:104B3000081B190BC80FD91FE12CF12C0115110509
:104B400019F18091E80085FD16C08091E8008E770C
:104B50008093E800C114D10449F0F601808191816D
:104B6000E80EF91EF182E08285E00FC00E94E62681
:104B7000882321F30AC089918093F1000150110923
:104B8000FFEFEF1AFF0ADACF80E0DF91CF911F919C
:104B90000F91FF90EF90DF90CF90089520917003D8
:104BA000309171032617370748F06115710539F404
:104BB0002091E8002E772093E80001C0B90140E081
:104BC00061157105A9F120916903222309F443C0FD
:104BD000253009F442C02091E80023FD40C0209117
:104BE000E80022FD32C02091E80020FFE9CF40918B
:104BF000F3002091F20030E0342BFC01CF0161156D
:104C0000710559F02830310540F481918093F1000D
:104C1000615071092F5F3F4FF1CF41E028303105DE
:104C200009F040E02091E8002E772093E800C8CFFB
:104C30004111C9CF0AC080916903882361F0853092
:104C400061F08091E80083FD0AC08091E80082FF56
:104C5000F2CF80E0089582E0089583E0089581E036
:104C6000089520917003309171032617370748F09B
:104C70006115710539F42091E8002E772093E80042
:104C800001C0B901FC0120E06115710591F180912D
:104C90006903882309F440C0853009F43FC080913E
:104CA000E80083FD3DC08091E80082FD2FC0809127
:104CB000E80080FFE9CF2091F3008091F20090E0BE
:104CC000922B6115710559F08830910540F42491BB
:104CD0002093F1003196615071090196F2CF21E0E5
:104CE000089709F020E08091E8008E778093E80033
:104CF000CBCF2111CCCF0AC080916903882361F00A
:104D0000853061F08091E80083FD0AC08091E80061
:104D100082FFF2CF80E0089582E0089583E0089555
:104D200081E00895982F973058F59093E9009817EF
:104D300039F07091EC002091ED005091F00003C02B
:104D4000242F762F50E021FF19C03091EB003E7FD9
:104D50003093EB003091ED003D7F3093ED003091CA
:104D6000EB0031603093EB007093EC002093ED008A
:104D70005093F0002091EE0027FF07C09F5FD3CF34
:104D80008F708093E90081E0089580E0089580911C
:104D90006A0387FF11C08091E80082FD05C0809101
:104DA00069038111F8CF11C08091E8008B770BC0A7
:104DB00080916903882349F08091E80080FFF8CF53
:104DC0008091E8008E778093E80008952091E400B8
:104DD0003091E50095E64091EC00842F817040FF12
:104DE00022C08091E80080FD1CC080916903882367
:104DF00091F0853091F08091EB0085FD10C04091DD
:104E0000E4005091E5004217530729F39A019150AD
:104E100011F784E0089582E0089583E0089581E029
:104E2000089580E008954091E80042FFDECF0895A4
:104E30000E9486270E948E27E0EEF0E0808181604C
:104E40008083E8EDF0E080818F77808319BCA7ED47
:104E5000B0E08C918E7F8C9380818F7E80831092C6
:104E6000680308950F931F93CF93DF930E948627C3
:104E70000E948E27C8EDD0E088818F778883888153
:104E80008068888388818F7D888319BC109269032C
:104E900010926503109267031092660300EE10E013
:104EA000F80180818B7F808388818160888342E0E4
:104EB00060E080E00E949226E1EEF0E080818E7F4B
:104EC0008083E2EEF0E08081816080838081886071
:104ED0008083F80180818E7F8083888180618883D0
:104EE000DF91CF911F910F910895E8EDF0E080815F
:104EF0008F7E8083E7EDF0E080818160808384E0B5
:104F000082BF81E0809368030C943227E8EDF0E0E3
:104F100080818E7F80831092E20008951092DA00E3
:104F20001092E10008951F920F920FB60F92112474
:104F30002F933F934F935F936F937F938F939F93A1
:104F4000AF93BF93EF93FF938091E10082FF0BC07B
:104F50008091E20082FF07C08091E1008B7F809307
:104F6000E1000E94032A8091DA0080FF1FC0809137
:104F7000D80080FF1BC08091DA008E7F8093DA001A
:104F80008091D90080FF0DC080E189BD82E189BD9B
:104F900009B400FEFDCF81E0809369030E94D9230C
:104FA00005C019BC109269030E94E7238091E100BB
:104FB00080FF19C08091E20080FF15C08091E2005F
:104FC0008E7F8093E2008091E20080618093E20016
:104FD0008091D80080628093D80019BC85E08093CE
:104FE00069030E94EB238091E10084FF30C080912F
:104FF000E20084FF2CC080E189BD82E189BD09B453
:1050000000FEFDCF8091D8008F7D8093D8008091E5
:10501000E1008F7E8093E1008091E2008F7E80939B
:10502000E2008091E20081608093E200809165035C
:10503000882311F084E007C08091E30087FD02C05F
:1050400081E001C083E0809369030E94EC2380919A
:10505000E10083FF29C08091E20083FF25C0809199
:10506000E100877F8093E10082E0809369031092E2
:1050700065038091E1008E7F8093E1008091E200E2
:105080008E7F8093E2008091E20080618093E20055
:1050900042E060E080E00E9492268091F00088600B
:1050A0008093F0000E94EA23FF91EF91BF91AF91AE
:1050B0009F918F917F916F915F914F913F912F9130
:1050C0000F900FBE0F901F9018951F920F920FB662
:1050D0000F9211242F933F934F935F936F937F937E
:1050E0008F939F93AF93BF93CF93DF93EF93FF93F0
:1050F000C091E900CF708091EC00D82FD17080FD75
:10510000D0E81092E9008091F000877F8093F00052
:1051100078940E94A9281092E9008091F00088609C
:105120008093F000CD2BCF70C093E900FF91EF91F9
:10513000DF91CF91BF91AF919F918F917F916F91AF
:105140005F914F913F912F910F900FBE0F901F9045
:1051500018951F93CF93DF93CDB7DEB7AA970FB6FD
:10516000F894DEBF0FBECDBFEAE6F3E088E08E0F15
:105170009091F10091938E13FBCF0E94F8238091C0
:10518000E80083FF28C180916A0390916B03492F47
:1051900050E04A30510508F01EC1FA01E556FF4FB4
:1051A0000C94472A803821F0823809F014C108C0D5
:1051B0008091660390916703992389F082600FC004
:1051C00080916E038F70873008F005C18093E900ED
:1051D0008091EB0085FB882780F91092E90090917F
:1051E000E800977F9093E8008093F1001092F1001F
:1051F000D0C0282F2D7F09F0EEC0882319F082300F
:1052000061F0E9C080916C03813009F0E4C0933013
:1052100009F080E0809367032EC080916C038111B8
:105220002AC080916E038F702FEF280F263008F070
:10523000D2C08093E9002091EB0020FF1CC0933086
:1052400021F48091EB00806214C09091EB0090619A
:105250009093EB0021E030E0A90102C0440F551FFC
:105260008A95E2F74093EA001092EA008091EB0001
:1052700088608093EB001092E9008091E800877FBE
:105280008093E8000E94C726A6C08111A4C0109197
:105290006C031F778091E3008078812B8093E3007B
:1052A0008091E800877F8093E8000E94C726809164
:1052B000E80080FFFCCF8091E30080688093E300EA
:1052C000111102C082E001C083E08093690383C0B2
:1052D0008058823008F07FC080916C0390916D03FC
:1052E0008C3D53E0950779F583E08A838AE28983D0
:1052F0004FB7F894DE01139620E03EE051E2E32F31
:10530000F0E050935700E49120FF03C0E295EF7066
:105310003F5FEF708E2F90E0EA3010F0C79601C02B
:10532000C0968D939D932F5F243149F74FBF809195
:10533000E800877F8093E8006AE270E0CE01019682
:105340000E94CE2515C060916E0370916F03AE016F
:105350004F5F5F4F0E94F224BC01892BE1F19091D5
:10536000E800977F9093E80089819A810E94312616
:105370008091E8008B778093E8002DC0803859F544
:105380008091E800877F8093E80080916503809397
:10539000F1008091E8008E7773CF81111CC090914D
:1053A0006C039230C0F48091E800877F8093E8001E
:1053B000909365030E94C72680916503811106C002
:1053C0008091E30087FD02C081E001C084E080930A
:1053D00069030E94EE238091E80083FF0AC0809158
:1053E000E800877F8093E8008091EB0080628093E3
:1053F000EB00AA960FB6F894DEBF0FBECDBFDF91CB
:10540000CF911F9108950895CF93809169038823C8
:10541000A1F0C091E900CF709091EC00892F8170CC
:1054200090FD80E8C82B1092E9008091E80083FD90
:105430000E94A928CF70C093E900CF910895AA1BBC
:10544000BB1B51E107C0AA1FBB1FA617B70710F06F
:10545000A61BB70B881F991F5A95A9F780959095A1
:10546000BC01CD01089597FB072E16F4009407D0D8
:1054700077FD09D00E941F2A07FC05D03EF49095C5
:1054800081959F4F0895709561957F4F0895EE0F18
:10549000FF1F0590F491E02D0994FC01415050400C
:1054A00030F001900616D1F73197CF010895882783
:1054B00099270895F999FECF92BD81BDF89A992751
:1054C00080B50895A6E1B0E044E050E00C94942A41
:1054D000A8E1B0E042E050E00C94942A262FF9991C
:1054E000FECF92BD81BDF89A019700B4021639F043
:1054F0001FBA20BD0FB6F894FA9AF99A0FBE089514
:105500000396272F0E946F2A0E946E2A252F0E9441
:105510006F2A242F0C946F2A0196272F0E946F2A3E
:105520000C946E2ADC01CB01FC01F999FECF06C078
:10553000F2BDE1BDF89A319600B40D924150504051
:08554000B8F70895F894FFCFBD
:10554800010253535301191A1B1C1D1E1F2021222F
:1055580017028C2392238F239023912301939594F0
:10556800969734353666673132333037F6F7F5F4C7
:10557800F1C6000102020202060606090909090924
:10558800090F0F0F0F0F0F151515181919191919DC
:08559800191919191923240047
:00000001FF
