:100000000C94F6070C943D080C943D080C943D08A4
:100010000C943D080C943D080C943D080C943D084C
:100020000C943D080C943D080C94AD2C0C94812D3F
:100030000C944F270C943D080C943D080C943D08FB
:100040000C943D080C943D080C943D080C943D081C
:100050000C943D080C94A6270C943D080C943D0884
:100060000C943D080C943D080C943D080C943D08FC
:100070000C943D080C943D080C943D080C943D08EC
:100080000C943D080C943D080C943D080C943D08DC
:100090000C943D080C943D080C943D080C943D08CC
:1000A0000C943D080C943D080C943D08011C021C66
:1000B0000104020401120212010A020A01080208E4
:1000C000010C020C010B020B0104020401110211CC
:1000D000010B020B010402040111021101160216A8
:1000E000010B010C020B020C01130213010C020C98
:1000F00001110211012C022C01E1011E021E02E17C
:1001000000011C021C0104020401120212010D0272
:100110000D010C020C0107010802070208011A0177
:1001200004021A01110204021101060206010B0267
:100130000B0108020801110211010A020A010D0156
:100140000C020D020C0111021101170217010C0221
:100150000C0104020401110211010702070115013B
:10016000080215020801110211011A021A011802EF
:100170001801120212012C022C00010F020F0104BF
:100180000204010F020F01040204010F020F010417
:10019000020401360236010D020D010C020C0111A0
:1001A000021101170217010C020C010402040111D3
:1001B000021101160216010B010C020B020C010EBA
:1001C000020E011802180104010C0204020C010FB6
:1001D000020F010802080107020701080208011CBA
:1001E000021C010C020C01170217010C020C010485
:1001F00002040111021101E1011E021E02E1012CA3
:10020000022C00011A021A01120212010402040156
:100210000C020C010B020B0104020401110211017A
:100220000B020B0104020401110211013602360116
:100230000B020B0104020401110211010B020B015C
:100240000402040111021101040204010C020C0158
:100250001A021A01120212012C022C0029003A0083
:100260003B003C003D003E003F004000410042009A
:1002700043004400450046004C0035001E001F00AE
:100280002000210022002300240025002600270052
:100290002D002E002A004A002B0014001A0008002E
:1002A000150017001C0018000C00120013002F008E
:1002B000300031004B00390004001600070009002F
:1002C0000A000B000D000E000F0033003400280060
:1002D00000004E00E1001D001B0006001900050093
:1002E00011001000360037003800E5005200000011
:1002F0004D00E000E200E3000154000000002C008B
:1003000000000000E600E4005000510000004F0033
:100310000100AA00A800A900AC00AE00AB000100DB
:10032000010001000100010001000100A500C05C06
:10033000BE5CC35CBF5CC15CC45CCE5CCF5CD05CAB
:10034000D35CD45C01000100010001000100CB5C22
:10035000CA5CC75CC65CC95CC85C010001000100E6
:100360000100D55CD65C0100010001000100010024
:100370000100010001000100010001000100010075
:1003800001000100000001000100003001300230D6
:100390000330010001000100010001000100010023
:1003A00001000000005C01000100010001000000EC
:1003B0000000010000000000010001000100010038
:1003C0000000010044454255473A20646973616268
:1003D0006C65642E0A0044454255473A20656E61BB
:1003E000626C65642E0A004F6E6573686F743A2004
:1003F0006163746976653A2025640A000A00253035
:100400003258006B6579626F6172645F7365745F07
:100410006C65643A20000A002530313662003A20CB
:100420000025303258000A722F63203031323334C5
:1004300035363738394142434445460A003F004388
:100440003E20004C25640A000A092D205374617473
:100450007573202D0A686F73745F6B6579626F61C5
:1004600072645F6C65647328293A20253032580A1B
:100470006B6579626F6172645F70726F746F636FC6
:100480006C3A20253032580A6B6579626F6172646C
:100490005F69646C653A20253032580A74696D656D
:1004A000725F72656164333228293A202530386CD6
:1004B000580A000A092D2056657273696F6E202D47
:1004C0000A5649443A2030784645454428254D414E
:1004D0004E554641435455524552252920504944D2
:1004E0003A20307830303030286B68383329205645
:1004F00045523A203078303030310A4255494C4428
:100500003A2020284D6172202036203230323229A4
:100510000A4F5054494F4E533A204C5546412045BE
:10052000585452414B455920434F4E534F4C452050
:10053000434F4D4D414E4420343039360A474343F2
:100540003A20382E342E30204156522D4C49424309
:100550003A20322E302E30204156525F41524348CD
:100560003A20617672350A000A092D20436F6E73B6
:100570006F6C65202D0A4553432F713A09717569D7
:10058000740A000A092D204D61676963202D0A4411
:100590003A094465627567204D657373616765202C
:1005A000546F67676C650A583A094D6174726978CF
:1005B000204465627567204D6F646520546F6767DE
:1005C0006C65202D2053686F77206B65797072659C
:1005D0007373657320696E206D617472697820672A
:1005E0007269640A4B3A094B6579626F61726420E3
:1005F000446562756720546F67676C65202D2053D2
:10060000686F77206B65797072657373207265709F
:100610006F72740A4D3A094465627567204D6F75B3
:10062000736520546F67676C650A563A09566572A0
:1006300073696F6E0A533A095374617475730A4390
:100640003A09416374697661746520436F6E736F14
:100650006C65204D6F64650A46312D4631303A098C
:1006600053776974636820746F204C6179657220D8
:10067000302D392028463130203D204C30290A3099
:100680002D393A0953776974636820746F204C617F
:1006900079657220302D390A47524156453A09533F
:1006A000776974636820746F204C617965722030BB
:1006B0002028616C7465726E617465290A423A097A
:1006C0004A756D7020746F20426F6F746C6F616437
:1006D00065720A4553433A094A756D7020746F205C
:1006E000426F6F746C6F616465722028616C746511
:1006F000726E617465290A453A095072696E7420F8
:10070000454550524F4D2053657474696E67730AA6
:100710004253504143453A09436C65617220454557
:1007200050524F4D0A006B65796D61705F636F6E5B
:100730006669672E7261773A20253032580A2E7327
:100740007761705F636F6E74726F6C5F63617073FB
:100750006C6F636B3A2025750A2E636170736C6F42
:10076000636B5F746F5F636F6E74726F6C3A20259A
:10077000750A2E737761705F6C63746C5F6C67755C
:10078000693A2025750A2E737761705F7263746C05
:100790005F726775693A2025750A2E737761705FFD
:1007A0006C616C745F6C6775693A2025750A2E73ED
:1007B0007761705F72616C745F726775693A20254A
:1007C000750A2E6E6F5F6775693A2025750A2E735C
:1007D0007761705F67726176655F6573633A202544
:1007E000750A2E737761705F6261636B736C6173FE
:1007F000685F6261636B73706163653A2025750A97
:100800002E6E6B726F3A2025750A006465627567FB
:100810005F636F6E6669672E7261773A20253032AA
:10082000580A2E656E61626C653A2025750A2E6D38
:1008300061747269783A2025750A2E6B6579626F4A
:100840006172643A2025750A2E6D6F7573653A20C2
:1008500025750A006565636F6E6669673A0A6465A7
:100860006661756C745F6C617965723A2025750AF2
:10087000003F000A6D6F7573653A206F66660A0067
:100880000A6D6F7573653A206F6E0A000A6B6579A1
:10089000626F6172643A206F66660A000A6B65795E
:1008A000626F6172643A206F6E0A000A6D61747241
:1008B00069783A206F66660A000A6D617472697819
:1008C0003A206F6E0A000A64656275673A206F66A7
:1008D000660A000A64656275673A206F6E0A000A4C
:1008E0000A4A756D70696E6720746F20626F6F744D
:1008F0006C6F616465722E2E2E2000433E200043F3
:100900006C656172696E6720454550524F4D0A0013
:100910007267626C696768742074696D65722064BF
:10092000697361626C652E0A007267626C69676840
:10093000742074696D657220656E61626C65642EE9
:100940000A007267626C6967687420736574206856
:100950007376205B4E4F454550524F4D5D3A2025F2
:10096000752C25752C25750A007267626C6967689D
:10097000742073657420687376205B454550524F30
:100980004D5D3A2025752C25752C25750A0072675A
:10099000626C69676874207261696E626F77207338
:1009A0006574206873763A2025642C25642C2564B0
:1009B0002C25750A007267626C6967687420646927
:1009C0007361626C65205B4E4F454550524F4D5DE3
:1009D0003A207267626C696768745F636F6E6669FC
:1009E000672E656E61626C65203D2025750A007278
:1009F00067626C696768742064697361626C652002
:100A00005B454550524F4D5D3A207267626C696795
:100A100068745F636F6E6669672E656E61626C6590
:100A2000203D2025750A007267626C696768742032
:100A3000656E61626C65205B4E4F454550524F4D6F
:100A40005D3A207267626C696768745F636F6E6697
:100A500069672E656E61626C65203D2025750A0010
:100A60007267626C6967687420656E61626C65208C
:100A70005B454550524F4D5D3A207267626C696725
:100A800068745F636F6E6669672E656E61626C6520
:100A9000203D2025750A007267626C6967687420C2
:100AA000746F67676C65205B454550524F4D5D3AEA
:100AB000207267626C696768745F636F6E666967EE
:100AC0002E656E61626C65203D2025750A00726797
:100AD000626C69676874206D6F6465205B4E4F457A
:100AE0004550524F4D5D3A2025750A007267626C81
:100AF00069676874206D6F6465205B454550524F8F
:100B00004D5D3A2025750A007267626C69676874EA
:100B10005F696E6974207267626C696768745F638D
:100B20006F6E6669672E6D6F6465203D20302E20E4
:100B300057726974652064656661756C74207661AE
:100B40006C75657320746F20454550524F4D2E0AC9
:100B5000007267626C696768745F696E69742065AA
:100B600065636F6E666967206973206E6F742065B8
:100B70006E61626C65642E0A007267626C696768F8
:100B8000745F696E6974207374617274210A0072F3
:100B900067626C696768745F696E69742063616C11
:100BA0006C65642E0A007267626C696768745F63C3
:100BB0006F6E6669672E7370656564203D202564DD
:100BC0000A007267626C696768745F636F6E66695A
:100BD000672E76616C203D2025640A007267626C86
:100BE000696768745F636F6E6669672E73617420EE
:100BF0003D2025640A007267626C696768745F63F0
:100C00006F6E6669672E687565203D2025640A0051
:100C10007267686C696768745F636F6E6669672E78
:100C20006D6F6465203D2025640A007267626C69FF
:100C30006768745F636F6E6669672E656E61626C6C
:100C400065203D2025640A007267626C69676874DC
:100C50005F636F6E66696720454550524F4D3A0A93
:100C60000000047F3F1F643214643214783C1E1E5F
:100C7000140A052223252628292A2C2D2F30323329
:100C80003536383A3B3D3E4042434547494A4C4E53
:100C90005051535557595A5C5E6062646668696B7F
:100CA0006D6F71737577797B7D7F81838587898A85
:100CB0008C8E90929496989A9C9E9FA1A3A5A7A88B
:100CC000AAACAEAFB1B3B4B6B8B9BBBCBEBFC1C2BB
:100CD000C3C5C6C7C9CACBCCCDCED0D1D2D2D3D44E
:100CE000D5D6D7D7D8D9D9DADADBDBDBDCDCDCDC6C
:100CF000DCDDDDDDDDDCDCDCDCDCDBDBDBDADAD93A
:100D0000D9D8D7D7D6D5D4D3D2D2D1D0CECDCCCBBB
:100D1000CAC9C7C6C5C3C2C1BFBEBCBBB9B8B6B4D9
:100D2000B3B1AFAEACAAA8A7A5A3A19F9E9C9A9869
:100D3000969492908E8C8A89878583817F7D7B793A
:100D4000777573716F6D6B6968666462605E5C5A1B
:100D50005957555351504E4C4A4947454342403EDE
:100D60003D3B3A3836353332302F2D2C2A29282670
:100D7000252322FFAA7F5540000101010101010145
:100D80000101020202020202020202030303030340
:100D9000030303040404040404040505050505060F
:100DA00006060606070707070708080808090909CD
:100DB000090A0A0A0B0B0B0C0C0C0D0D0D0E0E0E76
:100DC0000F0F0F1010111111121213131414151507
:100DD00016161717181819191A1A1B1B1C1D1D1E79
:100DE0001E1F2020212222232424252626272829CD
:100DF000292A2B2C2D2D2E2F3031323233343536FB
:100E00003738393A3B3C3D3E3F40414243444546FA
:100E10004748494A4C4D4E4F5051535455565859D6
:100E20005A5B5D5E5F616264656668696B6C6D6F7D
:100E30007072737577787A7B7D7E808283858788F0
:100E40008A8C8E8F91939596989A9C9EA0A2A3A52A
:100E5000A7A9ABADAFB1B3B5B7BABCBEC0C2C4C62B
:100E6000C9CBCDCFD1D4D6D8DBDDDFE2E4E7E9EBE7
:100E7000EEF0F3F5F8FAFDFF0A00253032582000B5
:100E80006B6579626F6172645F7265706F72743ADC
:100E900020005B735D004B6579626F617264207343
:100EA000746172742E0A005B575D005B535D005BDA
:100EB000525D005B445D005B435D000A036B0068AC
:100EC000003800330000001E0325004D0041004E95
:100ED00000550046004100430054005500520045B3
:100EE000005200250000000403090409025B00030E
:100EF0000100A0FA09040000010301010009211109
:100F00000100012240000705810308000A090401CD
:100F10000001030000000921110100012232000735
:100F200005820320000A09040200020300000009F0
:100F3000211101000122220007058303200001077F
:100F40000503032000011201000200000008EDFE6D
:100F500000000100010200010631FF0974A101092E
:100F600075150026FF009520750881020976150089
:100F700026FF00952075089102C005010980A10196
:100F8000850319012AB700150126B70095017510D0
:100F90008100C0050C0901A101850419012AA002E4
:100FA000150126A002950175108100C005010906F2
:100FB000A101050719E029E715002501950875012C
:100FC00081029501750881010507190029FF1500A7
:100FD00026FF009506750881000508190129059569
:100FE0000575019102950175039101C011241FBE81
:100FF000CFEFDAE0DEBFCDBF04B603FE27C080919D
:10100000C4039091C503A091C603B091C703873074
:10101000904BA740B04BD1F41092C4031092C5037B
:101020001092C6031092C70314BE84B7877F84BF93
:101030000FB6F894A8958091600088618093600055
:10104000109260000FBEE0E0F8E3099511E0A0E027
:10105000B1E0E2EBF0E602C005900D92AC3CB107C6
:10106000D9F723E0ACECB1E001C01D92A43CB2077B
:10107000E1F70E9450190C942F300C940000FF935C
:10108000EF93E091CC01F091CD01309709F00995F3
:10109000EF91FF910895FC018591803011F0EFDF11
:1010A000FBCF0895FF27E0E230E247FF0CC04195F7
:1010B00097FF09C0EDE26095709580959095611D50
:1010C000711D811D911D27FF02C0219530E350E263
:1010D000AA27660F771F881F991FAA1FA41710F051
:1010E000A41B63955A95A9F7AA3008F0A95FA05DE3
:1010F000AF93F395611571058105910541F7ED32C7
:1011000011F4EF93F395F21718F43F93F395FBCF97
:101110008F91B5DFFA95E1F70895E991F9918591FD
:10112000803021F0853219F0AADFF9CF089520E050
:10113000E89455915532C1F3503311F468945591A8
:101140005A3348F4505390F3220F022E220F220FED
:10115000200D250FF4CF0EF42195899199915336E6
:1011600019F3533729F1533559F1BC0188279927D1
:10117000E8945C3621F4899199916894559154369C
:1011800039F446EF7EF077FF0DC08FEF9FEF0AC076
:1011900055374AE039F0583540E121F0523642E007
:1011A00009F00895FF93EF937DDFEF91FF91B7CFA3
:1011B000FF93EF93FC0181918030B9F360DFFBCFA7
:1011C000FF93EF9368DFF1CFDF93CF93CDB7DEB717
:1011D0002596A3DFCF91DF910895FC01613079F06E
:1011E000662339F0623089F06330A9F090E080E046
:1011F000089582818823D1F383E092E0089582816B
:101200008823A1F38AE791E008958281882371F30E
:1012100081E091E008958281882341F38CEA90E097
:1012200008950895089581E00895089581E008954E
:101230000C94130908950C941A091F93CF93DF930C
:1012400000D000D00F92CDB7DEB749835A836B83AD
:101250003091CE0189819A8131111DC06623B9F088
:101260002223A9F00E94090F182F682F89819A81E3
:101270000E94B50E69817A81812F0F900F900F9097
:101280000F900F90DF91CF911F910C9489150E94C0
:10129000E10E182FEFCF0E94090F69817A81EDCFFF
:1012A000FC01262F408151816281738184810C94DD
:1012B0001D0981E00895CF93DF93EC0160E00E9467
:1012C0005009BE01DF91CF910C941B090E948E172B
:1012D0000E94160A0C94B2170C94B41708950E9439
:1012E0005E0D0E946E092FEF84E39CE02150804048
:1012F0009040E1F700C000000C94CA270F931F93A1
:10130000CF93DF938C0161E00E945009EC01B8019A
:101310000E9418098823F1F1B801CE010E947524BA
:101320008823C1F1B801CE010E94C724882391F11E
:10133000B801CE010E94F125882361F1B801CE01E8
:101340000E941223882331F1F8018281882361F001
:10135000CF3DFCE5DF07B1F170F4C115ECE5DE0728
:10136000B9F0C130DC45E1F0C801DF91CF911F91A8
:101370000F910C941609CC358DE5D80749F1CD3580
:10138000DC0719F1CB35DD4579F70E940213ECCF6C
:101390000E946F0980E0DF91CF911F910F91089516
:1013A00090916D02892F8E7F90FF816080936D02F6
:1013B00080FF05C086ED93E00E944B08EBCF84ECE4
:1013C00093E0FACF0E946A14E5CF0E94F912CCCFC5
:1013D0000E940513C9CF829590E09C01220F331F14
:1013E000220F331F2C7C9595879595958795837350
:1013F000282B30E0C901880F991F8A7A35952795E7
:101400002575822B0895CF93DF93D92F0E94EB0986
:10141000C82F8D2F0E94EB099C2FDF91CF9108954B
:101420000C94150981E008950C94120A0895CF9345
:10143000C82F0E94100A8C2FCF910C94140ACF93BE
:10144000DF93CDB7DEB72B970FB6F894DEBF0FBE94
:10145000CDBF4F83588769877A878B8761110E9438
:1014600028131E821D8285E0FE013796DE0111964B
:1014700001900D928A95E1F78C819D81892B89F4E9
:1014800049815A816B817C818D819E810E941512D8
:101490002B960FB6F894DEBF0FBECDBFDF91CF9174
:1014A000089589819A8189238F3F51F3CE01019656
:1014B0000E9459098111E4CFEBCFFC018081918119
:1014C0000C944B0FCF93C82F882309F444C08CEFA2
:1014D0008C0F813AC8F48C2F0E94D61A81113BC020
:1014E0006C2F80910001909101010E94B626882303
:1014F00029F08C2F0E94B6120E9458138C2F0E9444
:10150000AF12CF910C94581380E28C0F883048F4BE
:10151000C77081E001C0880FCA95EAF70E940B13DB
:10152000F0CFEBE5EC0FE33040F4F0E0E25BFE4F90
:10153000808190E0CF910C947826C85AC73158F436
:10154000EC2FF0E0EE0FFF1FE05EFE4F80819181F7
:10155000CF910C948E26CF910895882329F19CEF8A
:10156000980F913A20F40E94B6120C94581390E20E
:10157000980F983050F4877091E001C0990F8A95C8
:10158000EAF7892F0E941113F0CF9BE5980F933053
:1015900020F490E080E00C947826885A873120F47B
:1015A00090E080E00C948E2608951F93CF93DF93F4
:1015B000182FEB010E94620A209731F4812FDF91EE
:1015C000CF911F910C94AD0A8FE99FE00197F1F73D
:1015D00000C000002197F0CF70E060E0893311F483
:1015E00060E570E00C94D50A882321F00E940B136B
:1015F0000C9458130895882321F00E9411130C9421
:1016000058130895BF92CF92DF92EF92FF920F93FB
:101610001F93CF93DF936C01D62FC72FFC0112814C
:10162000058102950F700E94CD12E82E8823A1F04B
:10163000E12E112389F08C2F807F803429F080E205
:101640008D0FE12C883040F082E00E94A9130E94A7
:10165000CD1291E0E82EE926BC2EB2949FE0B9228B
:10166000EB2DF0E0EF5CFF4C0C94962F0C2F0F70DD
:10167000C07F11F00295007F1123A9F0002359F0DB
:1016800080E28D0F883010F0D11109C0802F0E94A8
:101690000B130E9458138D2F0E94620A14C0802FD2
:1016A0000E941B13F6CF8D2F0E94AD0A002359F024
:1016B00080E28D0F883010F0D1112CC0802F0E9455
:1016C00011130E9458132B2D2850330B2430310551
:1016D00020F40E9420260E94170AEE2009F493C1EC
:1016E0000E94C91280FD8FC1F60112820E94C312AE
:1016F0000E94190EC6010E94240D0E94C312DF91A0
:10170000CF911F910F91FF90EF90DF90CF90BF90FE
:101710000C943A0E802F0E942113D3CFFC2FFF7020
:10172000FF2EC07FC03219F0F29480EFF822DD2343
:1017300069F0D13049F1112391F1002351F1F60103
:10174000858180FFA8CF8F70858323C0112381F00E
:10175000011106C00E943B138F290E94F40AB3CFE7
:101760000130C1F70E943B138F290E944113ABCF78
:10177000011106C00E944E138F2D0E94FB0AA3CFB9
:10178000013009F4A0CFF6CF112329F0063008F07C
:101790009ACF8F2DE2CF053008F095CFEDCF002303
:1017A00059F3D93349F4FFEF27EE33E0F1502040ED
:1017B0003040E1F700C000008D2F0E94AD0A83CFBA
:1017C0008C2F86958695837069F0813009F07BCFE8
:1017D0008D2F9C2F9370111102C090E080E00E9429
:1017E0008E2671CF8D2F9C2F9370111102C090E027
:1017F00080E00E94782667CF8C2F837009F041C06B
:10180000111161CF4D2F429546954770440F440FFB
:101810000D2F0F7010E030E020E0042E04C0000F08
:10182000111F221F331F0A94D2F760E070E0CB0132
:10183000D4FF0FC06FE070E080E090E004C0660F5E
:10184000771F881F991F4A95D2F7609570958095EC
:101850009095C695C695C370602B712B822B932BE8
:10186000C23049F058F4C13019F00E94CB0D2BCF93
:101870000E94B90D28CF0E94DD0D25CF0E94B70D23
:1018800022CF8695112311F08C2F8170882309F4C3
:101890001ACF4D2F429546954770440F440F0D2F98
:1018A0000F7010E030E020E0042E04C0000F111F84
:1018B000221F331F0A94D2F760E070E0CB01D4FFFF
:1018C0000FC06FE070E080E090E004C0660F771F0B
:1018D000881F991F4A95D2F76095709580959095CD
:1018E000C695C695C370602B712B822B932BC2308B
:1018F00049F058F4C13019F00E94900EE4CE0E94D5
:101900007E0EE1CE0E94A20EDECE0E94F30DDBCE53
:10191000CF70112329F08C2F0E94190E8D2F1DCF0F
:101920008D2F0E94FB0A8C2F0E943A0ECCCED23F04
:1019300089F160F4D03FC9F0D13F29F1112309F4B6
:1019400042C00111A8CE8C2F8F7121C0D33F39F135
:10195000D43FA1F7112369F1CF718C2F0E94190E8A
:1019600063E08C2F0E948E13AECE112341F0053020
:1019700008F0A9CE8C2F8F710E945D0EA4CE063088
:1019800008F0A1CEF7CF8C2F8F71112369F20E943E
:10199000190E99CE8C2F8F711123C9F3C5CF112346
:1019A00029F08C2F8F710E94040E8DCE0E94FF0DA6
:1019B0008ACE81E00E94A913023008F484CE82E02E
:1019C0000E94A91380CE002359F0D93309F0F4CE38
:1019D0008FEF97EEE3E081509040E040E1F7EACEF0
:1019E0008C2F8F71A1CF4C2F4F706D2FC6010E948D
:1019F000ED080E94790F67CE4C2F4F706D2FC601F6
:101A00000E94881560CEDF91CF911F910F91FF90BA
:101A1000EF90DF90CF90BF9008950F931F93CF93D7
:101A2000DF93EC01688179818A810E94550F8C01D6
:101A30000E94B40E0E94B60DB801CE01DF91CF9185
:101A40001F910F910C94020BCF93DF93EC018B81CC
:101A50009C81892B29F08881998189238F3F59F4B2
:101A6000DF91CF910895CE010E940D0DCE01DF913F
:101A7000CF910C945B09CE010E947E098111F3CFB6
:101A80000E94CD12882361F38A81882349F382E082
:101A9000DF91CF910C94A91390E080E00E9478260A
:101AA00090E080E00E948E260E9428130E94381346
:101AB0000C9458130E94BD120C944C0D0E941813E4
:101AC0000C945A0DE92FE295EF70E250EE3070F46D
:101AD000F0E0EF5BFF4C0C94962F803F19F020F460
:101AE000883E20F481E00895843FE1F380E008958A
:101AF000883EC0F3813FD1F7F5CF93FB882780F96B
:101B00000895FC01808191810E944B0F0C94620D1D
:101B1000CF93DF9300D000D00F92CDB7DEB70F90F8
:101B20000F900F900F900F90DF91CF910895CF936A
:101B3000DF9300D000D000D0CDB7DEB726960FB629
:101B4000F894DEBF0FBECDBFDF91CF910895089509
:101B50000C94A70D0E94A80D60930F0270931002C1
:101B600080931102909312020C944C0D08950C94E2
:101B7000AA0D0F931F9300910F0210911002209154
:101B8000110230911202602B712B822B932B1F912B
:101B90000F910C94AA0D0F931F9300910F021091B7
:101BA00010022091110230911202602371238223CE
:101BB00093231F910F910C94AA0D0F931F930091E3
:101BC0000F02109110022091110230911202602731
:101BD0007127822793271F910F910C94AA0D0C94C3
:101BE000A70D0C94EF0D0E94F10D60930B02709302
:101BF0000C0280930D0290930E020C944C0D60E049
:101C000070E0CB010C94F30D0F931F9341E050E073
:101C100060E070E08A019B0104C0000F111F221FC9
:101C2000331F8A95D2F7C901B8011F910F910C9407
:101C3000F30D0F931F9341E050E060E070E004C0AB
:101C4000440F551F661F771F8A95D2F780910B02AC
:101C500090910C02A0910D02B0910E028A019B019D
:101C6000082B192B2A2B3B2BC901B8011F910F916F
:101C70000C94F30D0F931F9341E050E060E070E08F
:101C800004C0440F551F661F771F8A95D2F7CB01FA
:101C9000BA01609570958095909500910B02109116
:101CA0000C0220910D0230910E02602371238223D9
:101CB00093231F910F910C94F30D0F931F9341E009
:101CC00050E060E070E004C0440F551F661F771FAE
:101CD0008A95D2F780910B0290910C02A0910D028F
:101CE000B0910E028A019B01082719272A273B275A
:101CF000C901B8011F910F910C94F30D0F931F931D
:101D000000910B0210910C0220910D0230910E02F5
:101D1000602B712B822B932B1F910F910C94F30D41
:101D20000F931F9300910B0210910C0220910D0252
:101D300030910E0260237123822393231F910F9110
:101D40000C94F30D0F931F9300910B0210910C0252
:101D500020910D0230910E02602771278227932770
:101D60001F910F910C94F30D08952FE0929F800D19
:101D70001124982F977041E001C0440F9A95EAF71B
:101D800086958695869595E0899FF0011124E1530B
:101D9000FE4F90E080E070E05191DF0111979B01D0
:101DA000082E02C0369527950A94E2F721702195F6
:101DB0002527242325272C9301968530910561F74B
:101DC00008952FE0929F800D1124982F977086958B
:101DD0008695869525E0829FF0011124E153FE4F00
:101DE00050E040E080E0219130E0092E02C03695BD
:101DF00027950A94E2F721703327042E01C0220FA1
:101E00000A94EAF7822B4F5F5F4F4530510559F72F
:101E10000895BF92CF92DF92EF92FF920F931F939C
:101E2000CF93DF938C01C0900B02D0900C02E09016
:101E30000D02F0900E0280910F0290911002A0917D
:101E40001102B0911202C82AD92AEA2AFB2ACFE14C
:101E5000D0E0BC2ED701C6010C2E04C0B695A795C4
:101E6000979587950A94D2F780FD0EC0219788F741
:101E7000B12C8B2DDF91CF911F910F91FF90EF909F
:101E8000DF90CF90BF900895B8018C2F0E94AF16BD
:101E9000019761F3EECFCF93DF93EC010E94090F1E
:101EA000BE01DF91CF910C94AF161F93CF93DF93B8
:101EB000EB019091CE01992331F0CB01DF91CF91CD
:101EC0001F910C944B0F882379F0CB010E94090FCE
:101ED000182F682FCE010E94B50EBE01812FDF9111
:101EE000CF911F910C94AF16CB010E94E10E182FD9
:101EF000F4CFEF92FF920F931F93CF93DF938C0158
:101F0000892B81F0F12CEE24E394E8012196F8016D
:101F10008491843770F4843008F05FC08130B1F070
:101F20008230A1F1DF91CF911F910F91FF90EF903F
:101F30000895853709F44CC008F43DC09CE7980F1C
:101F4000903780F78F770E94AD0A49C00E5F1F4F10
:101F5000FE01849190E2980F983060F48770FE2D16
:101F600001C0FF0F8A95EAF78F2F0E942B130E9462
:101F7000581302C00E94620A8F2D815030F2EFE99F
:101F8000FFE03197F1F700C00000F7CF0E5F1F4F61
:101F9000FE01849190E2980F983050F48770FE2DE6
:101FA00001C0FF0F8A95EAF78F2F0E943113DFCF10
:101FB0000E94AD0AE1CF0E5F1F4FFE01C491C150D8
:101FC000D8F28FE99FE00197F1F700C00000F7CF4A
:101FD0000E5F1F4FFE01F490CFCF0E94620A8E0168
:101FE000CBCF1F93CF93DF93C091130216E0809164
:101FF00014028C1304C0DF91CF911F910895D0E09B
:102000001C9FF0011D9FF00D1124EB5EFD4F4081E0
:10201000518162817381848195810E94970D2196FF
:10202000C770E5CF4091450250914602609147024A
:10203000709148028091490290914A020C94970D48
:102040001F93CF93DF9380914A02807FA9F4809100
:102050004702882389F080911302C0911402609195
:10206000450270914602A0914802B0914902D62FD4
:10207000D72316E0C81304C0DF91CF911F910895B4
:1020800090E0109711F0DF3F19F401968770F2CFBE
:10209000189F9001199F300D1124F901EB5EFD4F3F
:1020A00041814713F2CF40814613EFCF4281411166
:1020B000ECCF438154814A1B5B0B483C510528F708
:1020C00080914A028F70806180934A02F901E65E36
:1020D000FD4F80818F708061808385E492E00E9453
:1020E000240DDF91CF911F910C94F10FAF92BF920D
:1020F000CF92DF92EF92FF920F931F93CF93DF93D4
:10210000CDB7DEB761970FB6F894DEBF0FBECDBF77
:102110008C0185E0F801DE011D9601900D928A95F3
:10212000E1F7F801E28085E4C82E82E0D82E6091C4
:102130004802709149026115710509F45AC19091E4
:10214000450220914602892F82238F3F09F451C115
:1021500040815181A380B480F0904702F501E61BD5
:10216000F70BFF2009F4F6C080914A02382F307F28
:10217000E83CF10508F0AFC0311179C0FE2C251301
:1021800023C0941321C0E1101FC08F708061809321
:102190004A020E941210C6010E94240D80914A0238
:1021A000F80185838F2D61960FB6F894DEBF0FBEC0
:1021B000CDBFDF91CF911F910F91FF90EF90DF90F6
:1021C000CF90BF90AF900895AB2829F0842F85233E
:1021D0008F3F09F027C180E0F82FF170DF2E80FFDC
:1021E0003CC0809113022091140236E0821315C086
:1021F0004D875E878D859E850E944B0F292F2295E6
:102200002F702230F0F0243018F59F70F1F0F801B3
:102210009581907FD1F4D12C1EC090E0389FF001C1
:10222000399FF00D1124EB5EFD4F6181651306C0EF
:102230006081641303C06281E6120FC0019687704B
:10224000D5CF9F7011F0882331F3805E883018F36A
:10225000C8010E94240DFD2CA5CFEE2009F4A2CFC9
:1022600080914A02816080934A02F12C9BCF251312
:1022700006C0941304C0F801EE2009F487C0C80119
:102280000E94810D882319F1EE2009F180914A0204
:10229000803270F0209145023091460238872F83BA
:1022A0001986BB86AA868C87CE0107960E94240DCC
:1022B00086E0F801A5E4B2E001900D928A95E1F77D
:1022C0000E9420100E941210FF24F3946BCFC801CB
:1022D0000E94240DF9CF311113C07A2DB98AA88A32
:1022E0006E2D89890E94880D85E492E00E94240D5C
:1022F00086E0F60111928A95E9F70E941210B5CF97
:1023000025130FC094130DC0E1100BC0F801858395
:10231000C8010E94240D86E0F60111928A95E9F722
:1023200041CFC8010E94810D882389F2EE2079F205
:1023300080914A02803208F4BBCF2091450230914F
:1023400046023A8329831B82BD82AC828E83CE01F2
:102350000196ACCFE83CF10508F03EC0FE2CEE2023
:1023600009F4B5CF25132AC0941328C080914A02DE
:1023700080FD1BC0982F907FC1F0F8018583903FAE
:1023800031F0982F907F905F8F70892B8583C801E3
:102390000E94240D86E0F801A5E4B2E001900D92C0
:1023A0008A95E1F70E941210FDCE86E0F801A5E4BF
:1023B000B2E001900D928A95E1F7F4CEC8010E9437
:1023C000810D811175CF80914A02816080934A020C
:1023D000C8010E94240DE6CE7A2DB98AA88A6E2DF6
:1023E00089890E94880D86E0F60111928A95E9F7A5
:1023F000D9CFEE2009F46BCFC8010E94810DF82ED1
:10240000882309F464CF86E0F801A5E4B2E00190E6
:102410000D928A95E1F785E492E00E945D0A0E94A0
:102420002010C0CF81E08E25D7CE1F93CF93DF93AE
:10243000CDB7DEB72C970FB6F894DEBF0FBECDBF79
:102440004F83588769877A878B879C87CE01079649
:102450000E947610882369F08A859B85892B39F044
:102460004F815885842F85238F3F09F071C016E076
:102470005FC086E0FE013796DE01119601900D9255
:102480008A95E1F78A859B85892B89F38F819885C9
:1024900089238F3F61F32091140230E0C901019636
:1024A00087709927409113024817190671F40E940A
:1024B0005E0D109214021092130286E0E5E4F2E041
:1024C000DF011D928A95E9F7D2CF96E0929FD00165
:1024D000939FB00D1124AB5EBD4FFE01319601906C
:1024E0000D929A95E1F7809314020E94F10FBFCFED
:1024F000819FC00111248B5E9D4F0E94761088231E
:10250000E9F0E09113021E9FF0011124EB5EFD4FF4
:102510004081518162817381848195810E94970DF0
:102520008091130290E0019687709927809313029F
:1025300080911302909114028913DACF2C960FB672
:10254000F894DEBF0FBECDBFDF91CF911F910895EC
:1025500069857A858B859C850E94970D88CF682F29
:1025600080910001909101010C94EC26682F8091DC
:102570000001909101010C94EE2680910001909150
:1025800001010C94F02680914B02859585958595E7
:10259000089580914B028770089590914B02977037
:1025A00081E009F480E00895CF93C82F80919C02C8
:1025B00082FB992790F99C17D1F0C0FB82F9809398
:1025C0009C0280919B0290919C020E94E613809154
:1025D0006D0280FF0CC01F92CF9387EE93E09F9314
:1025E0008F930E94E4080F900F900F900F90CF915F
:1025F000089580919C0282FB882780F991E08927C9
:102600000C94D41281E00C94D41280E00C94D41277
:1026100080915702089590915702892B8093570219
:1026200008958095909157029823909357020895AA
:1026300010925702089590915602892B809356026A
:10264000089580959091560298239093560208958C
:1026500010925602089590915502892B809355024D
:10266000089580959091550298239093550208956E
:1026700010925502089580914C02089508950C948B
:102680003E1390919C0292FD08C090914C029817C5
:1026900021F080934C020C943F13089580914C02DA
:1026A000882329F010924C0280E00C943F13089587
:1026B000E0910001F0910101809157028083E09147
:1026C0000001F0910101808190915602892B808355
:1026D000E0910001F0910101808190915502892BD8
:1026E000808390914C02992381F0E0910001F09158
:1026F00001018081892B80838091000190910101EB
:102700000E94A42681110E944E1380910001909195
:1027100001010C942C2608950C948B1390919C022B
:1027200092FD10C098E0899F90011124622B609364
:102730004B020E94190E80914B02859585958595D7
:102740000C948C130C94190E10924B0280E00C9494
:102750008C1390914B028095892380934B02282FF4
:10276000277039F4282F082E000C330B921713060C
:1027700021F490919C0292FF07C0859585958595DF
:102780000E943A0E0C94A413089590E080E00E94F9
:10279000F52F21E0893E9E4F09F020E0822F089519
:1027A00082E090E00C94E72F83E090E00C94E72F18
:1027B000CF9384E090E00E94E72FC82F82E290E060
:1027C0000E94E72F982F8C2FCF910895CF93C92F78
:1027D000682F84E090E00E94FB2F6C2F82E290E053
:1027E000CF910C94FB2FAB01BC018FE090E00C94D7
:1027F0000D30AB01BC0183E190E00C940D3060E042
:1028000070E0CB010C94F91360E070E0CB010E9402
:10281000F3130C94FF1369EE7EEF90E080E00E94CA
:10282000193060E082E090E00E94FB2F60E083E0DE
:1028300090E00E94FB2F10920F0210921002109253
:1028400011021092120260E084E090E00E94FB2FDF
:1028500060E082E290E00E94FB2F60E085E090E083
:102860000E94FB2F60E086E090E00E94FB2F6FEF5C
:1028700087E090E00E94FB2F40E050E0BA0188E042
:1028800090E00E940D3060E08DE090E00E94FB2F10
:1028900040E050E0BA0188E190E00E940D3060E035
:1028A00087E190E00E94FB2F40E050E0BA018CE10C
:1028B00090E00E940D3070E060E080E290E00E94C5
:1028C000193040E050E0BA0188E190E00E940D30FC
:1028D0000C9404140C940B14682F8EE090E00C946C
:1028E000FB2F0E948B276093690270936A0280938A
:1028F0006B0290936C026093650270936602809302
:10290000670290936802089585B7806885BF85B790
:10291000806885BF0895089508950C948B140895D8
:102920000C948F140E94841483E899E20E94EE278D
:102930000E948C140C948D1481E008950C949C14C6
:10294000089508950E94A0140C94A1140E94762763
:102950000E94B8180E945E210C949014CF93C82F47
:1029600080916D0282FF1EC080FF1CC083E094E056
:102970000E944B0880916D0280FF14C01F92CF937C
:102980008EEF93E09F938F930E94E40880916D02F5
:102990000F900F900F900F9080FF04C08CEF93E08A
:1029A0000E944B088C2FCF910C94170A8F929F9204
:1029B000AF92BF92CF92DF92EF92FF920F931F934D
:1029C000CF93DF93CDB7DEB72A970FB6F894DEBF6B
:1029D0000FBECDBF0E94CB1881110E94711459E522
:1029E000852E52E0952E10E000E0A02E802F0E9450
:1029F000B6176C01F401E190F1904F01E816F90669
:102A000009F45CC080916D0281FD0E94BF17C7016F
:102A10008C259D25B12CEE24E394F12C9C012E21D4
:102A20003F21232B09F444C00E949E148823A9F05F
:102A3000BE82AF82CE20DF2081E0CD2809F480E085
:102A400088870E947F278160782F9A8789874E81A7
:102A50005F8168858A850E941F0A000F111FF80197
:102A6000E75AFD4F80819181E826F926F182E082C4
:102A70000E9464220E942026909158028917A9F191
:102A80000E942026809358022A960FB6F894DEBF43
:102A90000FBECDBFDF91CF911F910F91FF90EF90AF
:102AA000DF90CF90BF90AF909F908F900C94AE141A
:102AB000B394EE0CFF1CFFE0BF12B0CF0F5F1F4FAF
:102AC0000630110509F091CF8FEF89838A831B822D
:102AD0000E947F278160782F9D838C8349815A8152
:102AE0006B818D810E941F0AC3CF2A960FB6F8947E
:102AF000DEBF0FBECDBFDF91CF911F910F91FF9031
:102B0000EF90DF90CF90BF90AF909F908F900895FF
:102B10000895972F70E02FE0929F600D711D112492
:102B2000FB019AE5899FE00DF11D1124EE0FFF1FB7
:102B3000E45AFD4F859194910895FC01EE0FFF1F1B
:102B4000EA5EFB4F859194910895CF93DF930E94A5
:102B5000B316EC01811520E5920708F041C08115FC
:102B600030E4930708F0B4C0803E910518F5803C2E
:102B7000910508F09DC0883A910570F4853A910559
:102B800008F08EC081309105F9F00097E9F00497C4
:102B9000D8F4D0E0C0E018C08F3B9105D0F7C85AF8
:102BA000D0E0CC0FDD1FCF5ADE4F0990D881C02D69
:102BB000D4640AC08115904258F4C11581E0D80749
:102BC00018F4C83ED10528F7CE01DF91CF910895C2
:102BD000C11590E3D90708F071C0CE019F706AC09B
:102BE000811525E5920758F5811534E5930708F01E
:102BF0009EC0811542E5940750F4C11581E5D807C0
:102C000008F469C0DC2FCC27C16FD06ADDCF982FC4
:102C1000969596959E0123703327C115D34508F0EC
:102C200077C0C1E0D0E002C0CC0FDD1F2A95E2F7EB
:102C300020E2929FC0011124C82BD92B67C0C11577
:102C400089E5D807A8F4C11598E5D90708F074C03C
:102C5000C11526E5D20708F09CCF8C2F0E944A1799
:102C6000C82FD0E0DC2FCC27CC27DF71D062ACCFCF
:102C7000C1153AE5D30708F464C0CE01905681151A
:102C8000904208F086CF8D2F8F710E944A1790E0F6
:102C9000982F882788279F719C012C2BE901E6CF6C
:102CA000C55AD0E0C158DE4FC881D0E0D0648CCF87
:102CB000805C91090E949D15EC0186CFCE01992779
:102CC000D3FF03C0EC01D86C7FCFEC01D06C7CCF7C
:102CD000DF70D06A79CFCE01E4E096958795EA95CA
:102CE000E1F783702C2F26952695237090E2299F7B
:102CF00090011124382B8C2F8370C1E0D0E002C0EA
:102D0000CC0FDD1F8A95E2F7C22BD32BDC685CCF9A
:102D1000C1E0D0E002C0CC0FDD1F2A95E2F730E21F
:102D2000939FC0011124C82BD92BDA684DCFD82F1F
:102D3000CC27C46FD06A48CFDC2FCC27C06FD06AB5
:102D400043CF8C2F8F700E944A1734E0D695C795D9
:102D50003A95E1F7CF709C2FEC01D06935CF0E94F6
:102D600089150C94A51582389105B1F1B0F4813321
:102D7000910509F475C048F48932910509F469C0D8
:102D80008A32910509F473C008958533910509F4D9
:102D900059C08933910501F10895833E9105A9F148
:102DA00038F4803E9105F9F0823E910549F108958D
:102DB000863E9105A9F1873E9105C9F1843E9105B2
:102DC00019F520919C0221FF1FC080919B0284FD78
:102DD00014C087EE90E0089520919B022370A1F02B
:102DE00080EE90E0089520919B0220FD47C0309135
:102DF0009C0230FF09C024FF44C090E080E004C082
:102E000020919B0222FDF7CF089520919B0222FD85
:102E10003BC030919C0230FDE3CF24FFF5CFEDCFD6
:102E200020919B0223FFF0CF24FDE7CFD2CF20914A
:102E30009B0223FD2CC030919C0231FFEECF84EE2B
:102E400090E0089520919B0225FFDECF89E290E07B
:102E5000089520919B0225FFD7CF85E390E0089548
:102E600020919B0226FFD0CF8AE290E00895209126
:102E70009B0226FFC9CF81E390E0089589E390E0AB
:102E8000089583EE90E0089582EE90E0089586EE36
:102E900090E0089590919B0292FF06C0282F287120
:102EA0002830F9F4877F846093FF06C0282F2871AB
:102EB0002831F1F4877E846120919C0220FF06C0B6
:102EC000382F38713830D9F4877F816021FF06C0F0
:102ED000282F28712831D1F4877E816194FD877E67
:102EE0000895282F24712430F9F68B7F8860DCCF79
:102EF000282F2471243101F78B7E8861DDCF382F94
:102F00003171313019F78E7F8860E0CF282F217121
:102F1000213121F78E7E8861E1CF08950E94C5138B
:102F2000811102C00E946A140E94D01380936D0226
:102F30000E94D81390939C0280939B020E948D174D
:102F40000E94D413682F70E090E080E00E94B70DDB
:102F500060910B0270910C0280910D0290910E0213
:102F60000C94F10D0C9411090C941209E82FF0E067
:102F7000EE0FFF1FE755FD4F808191810895CF929D
:102F8000DF92EF92FF920F931F93CF93DF9386E22E
:102F900094E00E944B0889EAE82E82E0F82ED0E007
:102FA000C0E091E2C92E94E0D92E08E114E0DF934D
:102FB000CF93DF92CF920E94E4088EE194E00E94CA
:102FC0004B08F701819191917F010E94030A9F9321
:102FD0008F931F930F930E94E40886E194E00E9470
:102FE0004B0821968DB79EB708960FB6F8949EBFF2
:102FF0000FBE8DBFC630D105D1F6DF91CF911F91A5
:103000000F91FF90EF90DF90CF90089580EA8A951E
:10301000F1F7089500C008950C940618F894E82F6D
:10302000E295EF70F0E031A1282F2F7081E090E061
:1030300001C0880F2A95EAF7982F9095932391A3C2
:1030400092A1892B82A378940895CF93DF93C1E94D
:10305000D1E089918F3F11F00E940E1881E0C739AD
:10306000D807B9F7C2E8D1E089918F3F11F00E94EB
:103070000E1881E0C139D807B9F7DF91CF910895D3
:10308000AF92BF92CF92DF92EF92FF920F931F9376
:10309000CF93DF938C01B62EC62FD0E0CE018F5692
:1030A0009E4F7C01FC0120812F3F09F453C0F8940E
:1030B000E22FE295EF70F0E031A12F7081E090E017
:1030C00001C0880F2A95EAF7932F982B91A392A11C
:1030D0008095892382A378940E940A18E2E8F1E09F
:1030E00030E020E0D12CC12C41E050E081918F3FB5
:1030F000E1F1A82FA295AF70B0E090966C9170E0CE
:103100008F7002C0759567958A95E2F760FD2DC0B6
:10311000CA01022E02C0880F991F0A94E2F7C82A3A
:10312000D92A2F5F3F4F2F30310501F7F7018081FA
:103130008F3F11F00E940E1861E0C114D10409F410
:1031400060E08B2D0E940C18CC0FDD1FC00FD11F2B
:10315000D982C882DF91CF911F910F91FF90EF909C
:10316000DF90CF90BF90AF90089590E080E0D7CFF0
:103170000E942518EDE9F2E0A9EAB2E0119211925D
:103180001D921D9282E0E93AF807C1F786E00E949D
:1031900016190C946609FF920F931F93CF93DF9338
:1031A000CDB7DEB72C970FB6F894DEBF0FBECDBFFC
:1031B0008E010F5F1F4F8CE0F80111928A95E9F79D
:1031C000F12C6F2DC8010E944018F394F6E0FF1215
:1031D000F8CF4CE050E0B8018DE992E00E94DA2F80
:1031E000FF24F394009709F4F12C892B41F08CE033
:1031F000F801ADE9B2E001900D928A95E1F72F2D2B
:1032000046E069EA72E08DE992E00E9417190E9497
:103210006C098F2D2C960FB6F894DEBF0FBECDBF74
:10322000DF91CF911F910F91FF9008950895FF9224
:103230000F931F93CF93DF93F82E092F162FD72FBD
:10324000C42F222349F081E0809370020E947F27DF
:1032500090936F0280936E02809170028823A1F098
:1032600080916E0290916F020E949727059760F0FF
:10327000EF2DF02FA12FBD2F90E080E0D0E08C1734
:103280009D0744F010927002DF91CF911F910F9132
:10329000FF900895219131912D933D930196EFCFA9
:1032A0000E94F7260E94E5290E94FE290E94142A06
:1032B0000E94A214FBCFCF93C82F1F928F9383E459
:1032C00094E09F938F930E94E40861E070E080E0B7
:1032D00090E004C0660F771F881F991FCA95D2F728
:1032E0000E94B70D0F900F900F900F90CF910C94FC
:1032F0005E0DEF92FF920F931F93CF93DF938B316D
:1033000009F401C108F09FC08B3009F4BBC008F07C
:103310007DC0863009F4C9C048F4853009F4A1C0E5
:1033200081E798E00E944B0880E0CFC0873009F425
:10333000D3C08830A9F70E94D4131F928F9384E5DD
:1033400098E09F938F930E94E4080E94D01383FB20
:10335000992790F91F929F9382FB992790F91F92CA
:103360009F9381FB992790F91F929F93982F9170BB
:103370001F929F931F928F938BE098E09F938F9360
:103380000E94E4080E94D81387FB222720F91F928D
:103390002F9386FB222720F91F922F9385FB22274C
:1033A00020F91F922F9384FB222720F91F922F933D
:1033B00083FB222720F91F922F9382FB222720F9DB
:1033C0001F922F9391FB222720F91F922F93292FD1
:1033D00021701F922F9381FB222720F91F922F9398
:1033E000282F21701F922F939F938F9386E297E04F
:1033F0009F938F930E94E4088DB79EB788960FB66F
:10340000F8949EBF0FBE8DBF81E05FC0803109F48C
:1034100092C080F48E3009F083CF90916D02892F95
:103420008B7F92FF846080936D0282FF81C08CE964
:1034300098E075C0863109F48EC0893109F070CFEB
:1034400083EB94E021C08A3249F190F4873211F184
:1034500028F48E3108F464CF8D511DC0893209F0F3
:103460005FCF8FED98E00E944B080E946F09CCCF90
:10347000833468F48A3308F093C0853359F0883375
:1034800009F04ECF83E895E00E944B08BDCF83340E
:1034900009F046CF80E00E945B19B6CF8FEF98E02D
:1034A0000E944B080E946A14AFCF80916D02807F0A
:1034B00080936D0288E695E00E944B088BEF98E0C0
:1034C0000E944B0881E080937102DF91CF911F91A0
:1034D0000F91FF90EF90089590916D02892F8E7F4C
:1034E00090FF816080936D0280FF03C083ED98E0C0
:1034F000CBCF86EC98E00E944B0880916D02817FD3
:1035000080936D0281CF90916D02892F8D7F91FF05
:10351000826080936D0281FF08C089EB98E00E9471
:103520004B0880916D028160EBCF8BEA98E0ACCFC5
:103530008CE898E0A9CF90916D02892F877F93FF47
:10354000886080936D0283FF03C080E898E0E7CF36
:1035500083E798E099CF0E948B27162F072FF82E2C
:10356000E92ED0919A02C0911F010E942026EF926D
:10357000FF920F931F931F92DF931F92CF931F927F
:103580008F9388E494E09F938F930E94E4088DB713
:103590009EB70C960FB6F8949EBF0FBE8DBF34CF6A
:1035A000895379CF80E008950C94D21ACF93C82F15
:1035B00080917102882331F0813099F0109271026C
:1035C00080E00DC00E9408138232D1F78C2F0E9438
:1035D000D21A811119C08C2F0E9479198170CF9154
:1035E00008950E940813823289F38C2F0E94D41A06
:1035F000811119C0C431C9F050F4CB3061F08DE3B2
:1036000094E00E944B0813C081E090E0E7CFC932FC
:1036100061F0C833A1F788E695E00E944B088FE37C
:1036200094E00E944B0881E0D9CF1092710280E0B3
:10363000D5CFEF92FF920F931F93CF93DF93EB01C0
:10364000E82FD11110C0442321F0F0E0E858F24FE8
:10365000E4916E2F7E2F8E2FDF91CF911F910F91CE
:10366000FF90EF9008950D2F10E0282F30E04423B5
:1036700029F02858324FF901249130E0F6E0CF9F2D
:10368000C0011124EFEFF0E0BF010E944C2FAB010D
:103690008C2F90E0880F991FA5E5A49FB001A59FEE
:1036A000700D1124861B970B982F990F980FBF014F
:1036B000601B710B629FD001639FB00D729FB00DB4
:1036C00011248B2F9D9FB0011124672F7727EF01C5
:1036D000C61BD70BBE01629FE001639FD00D729F96
:1036E000D00D11247F01E91AF108E09EB001E19E9E
:1036F000700DF09E700D1124672F7727E61BF70BD6
:10370000E29F8001E39F100DF29F100D1124E12F25
:10371000722F4230510599F048F44115510569F076
:103720004130510581F0EB2F8D2F07C044305105FA
:1037300069F080F046305105B1F76E2F8DCFE22F42
:103740007B2F812FFACFE22F7D2FF7CFEB2F822F08
:10375000712FF3CF7B2F822FED2FEFCF41E00C9411
:10376000191B08950C94AE1BCF93DF93762FE901BC
:10377000682F842F0E94B21B798368838A83DF912C
:10378000CF9108958091B502982F9E7F29F4817082
:1037900082608093B50208958A34E8F3817088646A
:1037A000F8CF88E090E00C94EF2FCF92DF92EF9269
:1037B000FF926B017C010E94C21BB701A60188E049
:1037C00090E0FF90EF90DF90CF900C940D30E5EB00
:1037D000F2E083E0808311828FEF828383831482FF
:1037E00060817181828193810C94D51B80916D02DF
:1037F00080FF76C088E49CE09F938F930E94E4084A
:1038000080916D020F900F9080FF6AC08091B50289
:1038100081701F928F938BE29CE09F938F930E9405
:10382000E40880916D020F900F900F900F9080FF31
:1038300057C08091B50286951F928F9380E19CE0DE
:103840009F938F930E94E40880916D020F900F90D8
:103850000F900F9080FF44C08091B6021F928F930B
:1038600086EF9BE09F938F930E94E40880916D0206
:103870000F900F900F900F9080FF32C08091B70291
:103880001F928F938CED9BE09F938F930E94E4088F
:1038900080916D020F900F900F900F9080FF20C0CD
:1038A0008091B8021F928F9382EC9BE09F938F933D
:1038B0000E94E40880916D020F900F900F900F907E
:1038C00080FF0EC08091B9021F928F9386EA9BE021
:1038D0009F938F930E94E4080F900F900F900F908A
:1038E00008958091B50280FF02C08695089580E01A
:1038F00008959091B902933018F49F5F9093B902A4
:10390000882351F06091B5027091B6028091B702A0
:103910009091B8020C94D51B089581E00C94791C09
:103920009091B902992319F091509093B90288238C
:1039300051F06091B5027091B6028091B7029091FA
:10394000B8020C94D51B089581E00C94901C70E093
:103950000C94DD23609106018091B50280FF0AC0BE
:103960008091050123E0829FC001112486549D4F60
:103970000C94A71C809107019091080123E0829F7D
:10398000F0011124E654FD4F891750F7118210827F
:1039900012828F5F3396F8CF9091B50290FF14C0DA
:1039A000909107012091080133E0939FF0011124C9
:1039B000E654FD4F921710F00C94AA1C818360838B
:1039C00042839F5F3396F6CF0895CF93DF9300D065
:1039D0000F92CDB7DEB79091B50290FF0AC09E015D
:1039E0002F5F3F4F0E94B41B4B8169818A810E94E7
:1039F000CC1C0F900F900F90DF91CF910895CF9333
:103A0000DF93EC01EC81F0E0ED58F34F4491E5EBEE
:103A1000F2E0628181810E94E51C8C818F5F8C8342
:103A2000DF91CF910895CF93DF93EC01E5EBF2E0C6
:103A3000438162818C810E94E51C8C818F5F8C8325
:103A4000DF91CF9108950F931F93CF93DF9300D011
:103A50000F92CDB7DEB78C018091720281110AC03E
:103A60009E012F5F3F4F4FEF6FEF0E94B41B8A8183
:103A700080937202F8016481613069F08091720272
:103A800040E0662361F040E0623011F44091720240
:103A900080E060E004C06091720240E080E00E943B
:103AA000CC1CF801848190E0019663E070E00E94F4
:103AB000602F84830F900F900F90DF91CF911F9113
:103AC0000F9108954F925F926F927F928F929F9283
:103AD000AF92BF92CF92DF92EF92FF920F931F931C
:103AE000CF93DF9300D00F92CDB7DEB7182FD62E2D
:103AF000042F722E9091B50290FF46C0E92FE695F3
:103B0000AE2FB0E0A956BE4F8C9180937E029E7F6F
:103B1000923009F04DC09E012F5F3F4F812F0E94D0
:103B2000B41B4B8169818A810E94CC1C1093B60220
:103B3000D092B7020093B802772009F49CC060913C
:103B4000B5027091B6028091B7029091B8020E94BE
:103B5000D51B80916D0280FF17C08091B8021F9223
:103B60008F938091B7021F928F938091B6021F921C
:103B70008F9389E699E09F938F930E94E4080FB694
:103B8000F894DEBF0FBECDBF0F900F900F90DF9166
:103B9000CF911F910F91FF90EF90DF90CF90BF904A
:103BA000AF909F908F907F906F905F904F9008950F
:103BB000823019F40091B802B9CF863019F410910F
:103BC000B602B4CF8930D9F3893109F0AFCFE951CA
:103BD0008E2F8170682E8E2F80958170C82EE6956D
:103BE000F0E0ED58F24FE590F490412CFF249EE870
:103BF000A92E99E0B92E60910901461618F00E948D
:103C0000AA1C94CF842C912C8E9CC0018F9C900D6B
:103C10009E9C900D112470E00E944C2F512E61103B
:103C200028C0560E80916D0280FF11C0FF92EF9266
:103C30001F92CF921F925F921F924F92BF92AF92AC
:103C40000E94E4080FB6F894DEBF0FBECDBF2091EE
:103C50000701820E911C9401220F331F280D391D7C
:103C600026543D4F402F6D2D852D0E94B41B43944B
:103C7000C2CF561AD7CF80916D0280FF85CF1F9299
:103C80000F931F92DF921F921F9382E499E073CFEC
:103C9000E5EBF2E09181282F4381628188E0890F72
:103CA0000C94621D81E00C94481EE5EBF2E09181DA
:103CB000282F4381628188EF890F0C94621D81E077
:103CC0000C94551EE5EBF2E0628128E0620F08F4E7
:103CD0006FEF282F438181810C94621D81E00C9449
:103CE000621EE5EBF2E0628128E0621B08F460E00E
:103CF000282F438181810C94621D81E00C94711EF8
:103D0000E5EBF2E0438128E0420F08F44FEF282F63
:103D1000628181810C94621D81E00C94801EE5EB30
:103D2000F2E0438128E0421B08F440E0282F628142
:103D300081810C94621D81E00C948F1E20E00C9414
:103D4000621DEF92FF921F93CF93DF93EC0110E07F
:103D5000EE24EA94F12C60910901161770F00E948C
:103D6000AA1C9A818C8190FF27C08F5F8C83DF9182
:103D7000CF911F91FF90EF90089520910701422F5E
:103D8000410F5527551FCA019A01220F331F280FD3
:103D9000391F26543D4F70E0C7010E94602F962FB7
:103DA0008C814091B8026091B702199F800D112457
:103DB0000E94B41B1F5FCFCF8150D8CFAF92BF926C
:103DC000CF92DF92EF92FF920F931F93CF93DF93E7
:103DD000FC0182810FEF80FF01E010E043E5A42E9B
:103DE000809109011817C8F00E94AA1C80917402E2
:103DF000013009F055C0811102C080910901815044
:103E000080937402DF91CF911F910F91FF90EF90FB
:103E1000DF90CF90BF90AF900895C0910701C12E61
:103E2000D12CCC0DDD2DD11DCE01880F991FC80FCF
:103E3000D91FC654DD4F198218821A8234E0E32E4E
:103E4000F12CB12C809174028B0D84351CF16A2DFC
:103E50000E943E2F892F082E000C990BC816D906F8
:103E600091F48091B8028E9DA0018F9D500D112478
:103E700055954795559547959E016091B70280915C
:103E8000B6020E94B41BB00EF1E0EF1AF108D1F6B1
:103E90001F5FA6CF87FFDFCF90910901890FDBCF8E
:103EA00090E001966091090170E00E94602FA8CF18
:103EB0000F931F93CF93DF93809107019091080197
:103EC00023E0829FF0011124E654FD4F891740F151
:103ED000C0E0D3E060910901C61740F10E94AA1C1E
:103EE0002091030180917302820F8093730290915D
:103EF0000401920F90930401191654F4082E000C3B
:103F0000990B409109014150550B841795071CF0FE
:103F1000219520930301DF91CF911F910F91089577
:103F20001182108212828F5F3396D0CF0C2F10E057
:103F300070E0C8010E94602F20910701820F482F76
:103F400050E020917302022E000C330B021713076E
:103F5000BCF020910401022E000C330B2017310716
:103F60007CF08D9F9001112426543D4F4091B80262
:103F70006091B7028091B6020E94B41BCF5FAACFB6
:103F8000FA01EE0FFF1FE40FF51FE654FD4F1182FB
:103F900010821282F3CF8F929F92AF92BF92CF92F4
:103FA000DF92EF92FF920F931F93CF93DF93EC0179
:103FB0004C81042F10E09801D8010E94A42F9B018E
:103FC000AC010E94BA2F4B015C01E0E2F0E0E01B83
:103FD000F10BA5E5B0E0AC019B010E94BA2F6B018B
:103FE0007C019F01DF010E949C2F9B01AC010E947C
:103FF000C52F9B01AC01280D391D4A1D5B1DC70152
:10400000B6010E94742FF22E822F90E039E23F1504
:1040100060F143E0249F9001112435952795122FDC
:10402000109500E085E5E82EEF188091090108174A
:1040300058F10E94AA1C9C8181E0992319F09032CA
:1040400019F48FEF8093020180910201890F8C8314
:10405000DF91CF911F910F91FF90EF90DF90CF9064
:10406000BF90AF909F908F90089525E530E0B90103
:10407000681B790B9B01220F331F260F371F37FF59
:10408000CCCF2F5F3F4FC9CF8E2D01FD8F2D2091BB
:104090000701622F600F7727771F9B01220F331FC5
:1040A000260F371F26543D4F412F6091B7020E94C3
:1040B000B41B0F5FBACF0F931F93CF93DF93EC0125
:1040C00010E000E0909109019017110609F06CF4DE
:1040D0000E94AA1C8C8190E00196817099278C83A4
:1040E000DF91CF911F910F91089520910701A801B1
:1040F000420F511D9A01220F331F240F351F2654E2
:104100003D4F4C816091B7028091B6029695901711
:10411000110651F04CF0442349F04091B8020E943E
:10412000B41B0F5F1F4FCECF4423B9F340E0F7CF4E
:104130006091B502669570E04BE050E08AE091E056
:104140000E94CD2F892B19F481E080937F020E9479
:104150007F27909376028093750280916D0280FF95
:1041600008C089E299E09F938F930E94E4080F9022
:104170000F90089510927F0280916D0280FF08C019
:1041800080E199E09F938F930E94E4080F900F9035
:1041900008959091B50290FF54C0917081113BC079
:1041A00092609093B5026623E9F16091B502709137
:1041B000B6028091B7029091B8020E94D51B8091FF
:1041C0006D0280FF0FC08091B50286951F928F937C
:1041D0008CEE9AE09F938F930E94E4080F900F90CB
:1041E0000F900F906091B502669570E04BE050E043
:1041F0008AE091E00E94CD2F892B01F10E94BA2024
:1042000081E0809378024091B8026091B70280917A
:10421000B6020C949E1E853210F09864C2CF880FAF
:10422000982BBFCF80916D0280FFDCCF8091B502CB
:1042300086951F928F938EEC9AE0CCCF0E949820A7
:10424000DFCF0895682F9091B502969581E0890F90
:10425000853208F081E00C94C92081E00C94222181
:10426000682F9091B50296958FEF890F09F484E23B
:104270000C94C92081E00C94302161E00C94C92099
:104280008091B50281608093B50280916D0280FFBC
:104290000DC01F9281E08F9380E69AE09F938F93E9
:1042A0000E94E4080F900F900F900F908091B5023C
:1042B00086950C943D2160E00C94C92080917D028C
:1042C000811160C080916D0280FF14C08FE89BE077
:1042D0009F938F930E94E40880916D020F900F903E
:1042E00080FF08C089E79BE09F938F930E94E408BA
:1042F0000F900F900E94C513811110C080916D0224
:1043000080FF08C081E59BE09F938F930E94E408A3
:104310000F900F900E946A140E94E71B0E94D11B0D
:104320006093B5027093B6028093B7029093B8027F
:104330006E7FC1F480916D0280FF08C088E09BE031
:104340009F938F930E94E4080F900F900E94E71BA9
:104350000E94D11B6093B5027093B6028093B7029E
:104360009093B8020E94C21B0E94F61B10927F021B
:104370008091B50280FF03C086950E945B2181E099
:1043800080937D0208958091B50281608093B5028B
:1043900080916D0280FF0DC01F9281E08F9387E2B4
:1043A0009AE09F938F930E94E4080F900F900F90D4
:1043B0000F908091B50286950C945B2110927C023F
:1043C00080917B0281110E94C3210C9498208091DE
:1043D000B5028E7F8093B5026091B5027091B602EE
:1043E0008091B7029091B8020E94D51B80916D0216
:1043F00080FF0FC08091B50281701F928F938FEE66
:1044000099E09F938F930E94E4080F900F900F9074
:104410000F900E94BA202FEF80E792E02150804059
:104420009040E1F700C000000C94AA1C80916D023E
:1044300080FF10C08091B502809581701F928F938C
:1044400087E99AE09F938F930E94E4080F900F9062
:104450000F900F908091B50280FD0C94E7210C9491
:1044600040218091B5028E7F8093B50280916D02CC
:1044700080FF0CC01F921F9285EB99E09F938F9352
:104480000E94E4080F900F900F900F900E94BA20A6
:104490002FEF80E792E0215080409040E1F700C08C
:1044A00000000C94AA1C0E94BA2080917C02811109
:1044B0000AC081E080937C028091B5028170809374
:1044C0007B020C94312208950F931F93CF93DF93B7
:1044D00080917F02882309F486C080917E02E0915A
:1044E000B502E695E81BE0937702823091F5F0E0A3
:1044F000E159F34FE491CE2FD0E00FEF1CE1809112
:104500007802882361F0109278020E947F279093AE
:1045100076028093750210927A02109279020E94BC
:104520007F27E0917502F09176028E1B9F0B8F3FE3
:104530009F4708F058C0EC0FFD1FF0937602E09300
:10454000750285E792E0F801DF91CF911F910F91FD
:104550000994863049F4F0E0E459F34FE491CE2F0A
:10456000D0E003E11DE1CBCF893051F4E695F0E0D6
:10457000E759F34FE491CE2FD0E001EA1EE1BFCF1F
:104580008F3051F4E695F0E0EA59F34FE491CE2FE5
:10459000D0E00EED1EE1B3CF853149F4F0E0ED59E6
:1045A000F34FE491CE2FD0E008E51FE1A8CFC8E299
:1045B000D0E00BEC1FE1883109F4A1CF833239F44C
:1045C000E1E6FCE0C591D49103E21DE198CFC4EF90
:1045D000D1E00BE510E2843209F491CFC0EDD7E0D1
:1045E00001EB1BE18CCFDF91CF911F910F910895CB
:1045F000FA01811101C0FB010994CF93DF93C82F09
:10460000D62F0E94711C8C1740F00E94711C8D17D0
:1046100020F4DF91CF910C942D218C2FDF91CF913D
:104620000C943D211F93CF93DF93EC01FB0112818A
:10463000112309F4C0C00E9408138272CD3CFCE52E
:10464000DF0709F49CC008F044C0C73CECE5DE0776
:1046500009F481C0F0F4C43C9CE5D90709F471C0A9
:1046600048F4C33CDC4509F469C0812FDF91CF9148
:104670001F910895C53C9CE5D90709F467C04FE533
:104680005EE162E57EE1C63CDC4579F70E94F822F6
:1046900053C0CA3CFCE5DF0709F467C068F4C83CB6
:1046A000ECE5DE0709F45CC04EE65EE16DE77EE115
:1046B000C93CDC4559F3D9CFCB3C9CE5D90709F47B
:1046C00059C044EA5CE16DE87CE1CC3CDC45F1F2A8
:1046D000CCCFC23DFCE5DF0709F462C098F4CF3CC3
:1046E0009CE5D90709F454C008F44EC0C03DFCE570
:1046F000DF0709F452C0C13DDC4509F0B6CF6EE0DA
:1047000089E048C0C53D9CE5D90709F44FC058F47D
:10471000C33DFCE5DF0709F446C0C43DDC4509F0B4
:10472000A4CF88E132C0C63D9CE5D90709F441C059
:10473000CE35DD4509F099CF10E097CF0E941622C3
:10474000FBCF4AE351E26DE271E2A0CF4DE251E2CC
:104750006AE371E29BCF42E55EE16FE57EE196CFD1
:104760004DE75EE16EE67EE191CF4BE95EE16CE8FC
:104770007EE18CCF4CE85EE16BE97EE187CF4DE8CE
:104780005CE164EA7CE182CF81E00E943D21D4CFEC
:1047900065E082E00E94FD22CFCF68E086E0FACF9C
:1047A00064E18FE0F7CF67E185E1F4CF62E289E170
:1047B000F1CF83E2EACF11E058CF809A41B34E7F28
:1047C00051B35160EFB7F8949B01220F331F260FAE
:1047D000371F280F391F2817390741F4EFBF8FE51E
:1047E00094E00197F1F700C000000895DC016D919D
:1047F000CD0178E051BB000000C067FF41BB660FF0
:10480000000000C000C000C041BB00C07A9591F715
:10481000E2CF0F931F93CF93DF93C42FD22FFC01CE
:1048200082818823C9F0409382020E947F2790935F
:1048300081028093800280E28C0F883008F050C0A3
:10484000C77081E001C0880FCA95EAF7DF91CF9168
:104850001F910F910C94F40A10918202141335C029
:1048600080918002909181020E949727883C910557
:1048700060F5C0E2CD0F1D17B9F080E2810F8830DE
:1048800040F4177081E001C0880F1A95EAF70E9482
:10489000FB0AC83048F481E09D2F977001C0880F53
:1048A0009A95EAF70E94F40A802F0E94EC0AC83019
:1048B000B8F4D77081E001C0880FDA95EAF7DF918C
:1048C000CF911F910F910C94FB0A80E28C0F8830DE
:1048D00038F4C77081E001C0880FCA95EAF7EFCFBE
:1048E000DF91CF911F910F9108950F939C01CB0100
:1048F000243F4CE5340759F1A8F4293DFCE53F0776
:1049000001F12A3D4CE53407D1F1283D3C4591F4B5
:1049100006E221EE41EE68ED7CE50E94092480E08C
:104920000F910895263FFCE53F07E9F0B0F0273FDF
:104930003C45F9F0FC018281882339F11092820212
:10494000EFCF07E225EE45EE69ED7CE5E6CF06E226
:1049500021EE40EE64EF7CE5E0CF07E225EE44EE89
:1049600065EF7CE5DACF06E221EE42EE66EF7CE50C
:10497000D4CF07E225EE46EE67EF7CE5CECF08E226
:1049800021E045EE6AED7CE5C8CF81E0C9CFCF9349
:10499000DF93EC01FB018281882309F420C1C4303C
:1049A000FDE5DF07C8F5CB3F9CE5D90730F49E0154
:1049B00022503C452431310598F50E94D81390933C
:1049C0009C0280939B02C031FCE5DF0709F4E0C044
:1049D00008F061C0C8309CE5D90709F4CBC088F560
:1049E000C430FCE5DF0709F4B3C0E8F4C2309CE54D
:1049F000D90709F4A7C080919B028260C330DC45CF
:104A000009F4A3C080919B0290919C020E94E6133E
:104A10000E945E0D80E004C0C236EDE5DE0769F25B
:104A2000DF91CF91089580919B028061C630FCE5B3
:104A3000DF0709F48AC008F48FC080919B0280626E
:104A400084C080919B028D7FCC309CE5D90709F40E
:104A50007CC070F480919B028C60CA30FCE5DF075B
:104A600009F473C008F48AC080919B028E7F6DC0E8
:104A700080919B02877FCE309CE5D90709F465C001
:104A800080919B028B7FCF30DC4508F45EC0809123
:104A90009B028F7E5AC0CD3FFCE5DF0709F474C04E
:104AA00040F5C4319CE5D90709F48AC058F4C231F5
:104AB000FCE5DF0709F474C008F46EC080919B0226
:104AC000837F43C0CB3F9CE5D90709F449C008F078
:104AD0004DC0C531DC4509F095CF80919B0282FB2A
:104AE000992790F921E0922790FB82F990FB83F9B6
:104AF0002CC0C1308DE5D80709F458C088F48091E6
:104B00009C028360CF3FECE5DE0769F180919C0257
:104B10008D7FC115DD4538F180919C028C7F23C0CB
:104B2000C3308DE5D80709F458C008F452C0C23626
:104B3000DD4509F067CF90919B02892F8F7E94FF0E
:104B4000806103C080919B02816080939B025ACF59
:104B500080919B028460F9CF80919B028860F5CFA1
:104B600080919C02816080939C024CCF80919C023A
:104B70008260F9CF80919B028064E7CF0E945E0D36
:104B800080919B028068E1CF80919C028E7FEBCF69
:104B900080919B028F7DD9CF80919B028F7BD5CF57
:104BA0000E945E0D80919B028F77CFCF80919C02F7
:104BB000982F909591708E7F892B90FB81F9D3CFA0
:104BC0000E945E0D90919B02892F97FB87F9805878
:104BD000BCCF81E00E946C1415CF80E0FBCF81E058
:104BE0001FCFCF93DF93EB0186319C4511F50E94D7
:104BF00008139A81992399F08A7A91E009F490E058
:104C000090938302811109C089E20E94AF120E9431
:104C1000581380E0DF91CF91089585E3F6CF80911E
:104C20008302811104C089E20E94B612F0CF85E3AD
:104C3000FBCF81E0EFCF90938902809388020895A3
:104C4000E0918802F0918902309721F00190F08183
:104C5000E02D099480E00895EF92FF920F931F9347
:104C6000CF93DF938C01E0918802F0918902309715
:104C7000C1F10280F381E02D099580916D0282FFE0
:104C800030C080FF04C080E89EE00E944B08D0E066
:104C9000C0E08AE7E82E8EE0F82E80916D0280FF5A
:104CA0000EC0F801EC0FFD1F80811F928F93FF92C1
:104CB000EF920E94E4080F900F900F900F902196B2
:104CC000C830D10551F780916D0280FF0AC088E796
:104CD0009EE0DF91CF911F910F91FF90EF900C9488
:104CE0004B08DF91CF911F910F91FF90EF900895A6
:104CF00020918602309187022817390771F090932E
:104D0000870280938602E0918802F09189023097B1
:104D100021F00680F781E02D099408952091840206
:104D2000309185022817390771F09093850280939E
:104D30008402E0918802F0918902309721F000848A
:104D4000F185E02D099408959C012E5F3F4FAC0141
:104D5000485F5F4F80E02417350709F40895F90193
:104D600091919F019923B9F38F5FF5CF662349F0A5
:104D7000FC01329608962191261729F0E817F907C9
:104D8000D1F780E0089581E008959C01FC013296FE
:104D90009FEF80E04191461751F09F3F19F4411178
:104DA00001C0982F8F5F8630A9F79F3F09F40895BF
:104DB000290F311D97FD3A95F90162830895FC0191
:104DC000329608962191261303C0DF0111971C9299
:104DD000E817F907B9F708950C94C5260C94DF2657
:104DE000029626E0FC0111922A95E9F708950895AC
:104DF000089508950C94F9268091BB03843059F1ED
:104E00000E94FA2680E00E94170A0E945322109204
:104E10008A0288E190E020E40FB6F894A895809388
:104E200060000FBE2093600083B7817F846083BFE2
:104E300083B7816083BF7894889583B78E7F83BF63
:104E40000FB6F894A8958091600088618093600007
:104E5000109260000FBE08950895CF930E94F82627
:104E60000E94CB180E942C27C0E08C2F0E94B617FE
:104E7000892B31F4CF5FC630C1F780E0CF91089520
:104E800081E0FCCF08950C9442270E945E0D0E94A1
:104E900020260E94170A0E94DE210C9443271F92AD
:104EA0001FB61F9211248F939F93AF93BF9380914E
:104EB0008A02811113C08091B3039091B403A09131
:104EC000B503B091B6034196A11DB11D8093B30304
:104ED0009093B403A093B503B093B603BF91AF9181
:104EE0009F918F911F901FBE1F90189582E084BDE7
:104EF00093E095BD9AEF97BD80936E0008952FB70C
:104F0000F8948091B3039091B403A091B503B0914C
:104F1000B6032FBF08952FB7F8946091B303709133
:104F2000B4038091B5039091B6032FBF08959C01FF
:104F30004FB7F8948091B3039091B403A091B50357
:104F4000B091B6034FBF821B930B089578941F92C4
:104F50001FB61F9211248F939F93AF93BF9380919D
:104F6000B3039091B403A091B503B091B603019639
:104F7000A11DB11D8093B3039093B403A093B50317
:104F8000B093B603BF91AF919F918F911F901FBEB9
:104F90001F90189581E08093E00080E28093D80014
:104FA0001092C9008FE19EE40197F1F700C0000064
:104FB00087E090EBDC018093C4039093C503A0933A
:104FC000C603B093C70388E19CE00FB6F894A89598
:104FD000809360000FBE90936000FFCF9093CD014F
:104FE0008093CC0108958091990208959091BB031C
:104FF000943031F580938D0270938F0260938E020E
:1050000082E08093E9008FEF9091E800815095FD58
:1050100006C095ED9A95F1F700008111F5CF8091CA
:10502000E80085FF0DC050E040E063E070E08DE8EF
:1050300092E00E94A22A8091E8008E778093E80097
:105040000895BC0184E00C94F627BC0183E00C9425
:10505000F627CF93DF93EC0181E08093E9008FEF97
:105060009091E800815095FD06C095ED9A95F1F775
:1050700000008111F5CF8091E80085FF14C050E059
:1050800040E068E070E0CE010E94A22A8091E80032
:105090008E778093E80088E0FE01A1E9B2E00190FC
:1050A0000D928A95E1F7DF91CF910895089587EBEE
:1050B0009EE00E944B088091BA03811109C00E94B2
:1050C000322C0E948F2C8091E20084608093E20059
:1050D000089583EB9EE00E944B081092BA03089556
:1050E0008FEA9EE00C944B088BEA9EE00C944B08F0
:1050F00087EA9EE00C944B0820918C022F5F822F50
:1051000062E30E94322F992319F020938C020895B4
:1051100010928C02809190028823F1F08091BB0361
:105120008430C1F49091E9009F702091EC00822FAF
:10513000817020FD80E8892B93E09093E9009091A5
:10514000EB0090FF04C09091EE0097FD08C08F70B7
:105150008093E9001092900208951092F1009091CE
:10516000E80095FDFACF9091E80090FFF0CF909184
:10517000E8009E779093E800EACF42E061EC81E09E
:105180000E94AE2B42E261EC82E00E94AE2B42E232
:1051900061EC83E00C94AE2B8091BD03833009F465
:1051A0005FC030F48130C1F1823009F49BC00895B2
:1051B0008A3009F487C08B3009F46DC0893009F05A
:1051C0004EC08091BC03813209F049C08091C00378
:1051D0009091C103029708F042C08091E800877F58
:1051E0008093E8008091E80082FF35C09091F30041
:1051F0008091F200029729F48091F1008B7F813039
:1052000021F48091F100809399028091E8008B77DE
:105210008093E8000C94E22B8091BC03813AF9F46E
:105220008091E800877F8093E8008091C00390918F
:10523000C103892B61F468E081E992E070E00E948B
:10524000F12A8091E8008B778093E800089560E070
:1052500090E080E0F3CF8091BB038111C3CF08952C
:105260008091BC03813AD9F78091C0039091C1032A
:10527000892BA9F78091E800877F8093E8008091CF
:10528000E80080FFFCCF80911F018093F1008091A6
:10529000E8008E77BDCF8091BC03813201F7809109
:1052A000C0039091C103892BD1F68091E800877FDC
:1052B0008093E8000E94E22B8091BE0380931F013F
:1052C0000C945E0D8091BC03813249F68091E80018
:1052D000877F8093E8000E94E22B8091BF03809338
:1052E0009A0208958091BC03813A09F0B8CF809169
:1052F000E800877F8093E8008091E80080FFFCCF82
:1053000080919A02C2CF9FB7F894109290029FBFEB
:105310009091BB03943009F048C02091E9002F70B0
:105320003091EC00932F917030FD90E8922B23E0A8
:105330002093E9002091EB0020FF34C02091EE0083
:1053400027FF30C020918B02222321F02091E8001A
:1053500025FF28C010928B0226E03091E80035FF2F
:1053600014C08093F1008091E80085FD27C08091F2
:10537000E80080FFFCCF8091E8008E778093E80002
:105380009F709093E90080E008953091BB03343022
:1053900049F43091EB0035FD05C0215041F481E026
:1053A00080938B029F709093E9008FEF0895EFE94F
:1053B000FFE03197F1F700C00000CFCF8FB7F8942E
:1053C00021E0209390028FBFDBCF84B7877F84BF1B
:1053D0000FB6F894A8958091600088618093600072
:1053E000109260000FBE80E890E00FB6F8948093B2
:1053F0006100909361000FBE0C9492140E94322CB5
:105400000E948F2CE2EEF0E08081846080837894AB
:105410000E94172F0E94A61485E191E00E941B268E
:1054200086E99EE00C944B088091BB03853051F4D3
:1054300082E99EE00E944B088091BB03853021F0F9
:105440000E9445270C94D6140E94FC268091B90333
:10545000882391F30E942D27882371F30E948C2AC0
:105460000E945E0DE9CF0C94352A292F3327233073
:10547000310521F168F42130310509F443C02230AF
:10548000310509F444C090E080E030E020E026C01F
:105490002132310551F122323105A9F7633071050E
:1054A00090F7FB01EE0FFF1FE154FE4F2081318189
:1054B00064547E4FFB01808190E010C099278130B9
:1054C000910581F0009729F00297E9F6EBEBFEE0F9
:1054D00002C0E7EEFEE0849190E09F01FA01318383
:1054E00020830895E7ECFEE0F6CF6330710558F6AF
:1054F000660F771FFB01EB53FE4F2081318189E05E
:1055000090E0ECCF82E190E026E43FE0E7CF8BE54E
:1055100090E02BEE3EE0E2CF80E189BD82E189BDE3
:1055200009B400FEFDCF8091D8008F7D8093D80014
:105530008091E00082608093E0008091E00081FD36
:10554000FCCF0895AF92BF92CF92DF92FF920F935C
:105550001F93CF93DF936C01EB018A010E94012C12
:10556000F82E811123C00115110539F0F801808151
:105570009181C81BD90BC80ED91EB12CA12C209724
:10558000A9F08091E80085FD22C08091E8008E7727
:105590008093E80001151105A1F0F8018081918147
:1055A000A80EB91EB182A08285E0F82E8F2DDF9162
:1055B000CF911F910F91FF90DF90CF90BF90AF9050
:1055C00008950E94012C8823D1F2F82EEFCFF60126
:1055D00081916F018093F1002197FFEFAF1ABF0A0D
:1055E000CECFFC018091C2039091C3038617970729
:1055F000A0F06115710529F49091E8009E779093D1
:10560000E80090E06115710551F4911108C0809196
:10561000E80082FF34C080E00895BC01F2CF8091A1
:10562000BB038823C1F18530C1F18091E80083FD7F
:1056300030C08091E80082FDEACF8091E80080FFD1
:10564000E1CF8091F3002091F200382F61157105B0
:1056500019F02830310558F091E02830310509F073
:1056600090E02091E8002E772093E800CBCF819145
:105670008093F100615071092F5F3F4FE7CF809118
:10568000BB03882341F0853041F08091E80083FF1F
:10569000BECF81E0089582E0089583E00895FC0183
:1056A0008091C2039091C30386179707A0F06115FC
:1056B000710529F48091E8008E778093E80090E0EE
:1056C0006115710551F4911108C08091E80082FFC5
:1056D00035C080E00895BC01F2CF8091BB038823E0
:1056E000C9F18530C9F18091E80083FD31C0809116
:1056F000E80082FDEACF8091E80080FFE1CF809151
:10570000F3002091F200382F6115710519F028304F
:10571000310558F091E02830310509F090E0809192
:10572000E8008E778093E800CBCF84918093F100DE
:105730003196615071092F5F3F4FE6CF8091BB03D7
:10574000882341F0853041F08091E80083FFBDCF90
:1057500081E0089582E0089583E00895982F9730BE
:1057600028F08F708093E90081E008959093E9001C
:10577000242F762F50E0981731F07091EC00209193
:10578000ED005091F00021FD02C09F5FE8CF309105
:10579000EB003E7F3093EB003091ED003D7F309386
:1057A000ED003091EB0031603093EB007093EC0032
:1057B0002093ED005093F0002091EE0027FDE5CFFF
:1057C00080E008958091BC0387FF13C08091E800BA
:1057D00082FF06C08091E8008B778093E80004C0C8
:1057E0008091BB038111F2CF08958091BB03882380
:1057F000D9F38091E80080FFF8CF8091E8008E77A0
:10580000ECCF2091E4003091E50095E6A9012091CC
:10581000EC00822F817020FF06C08091E80080FF9D
:1058200006C080E008952091E80022FD1AC0809112
:10583000BB03882389F0853089F08091EB0085FDDA
:105840000FC02091E4003091E50042175307F9F2B0
:105850009150E1F684E0089582E0089583E0089590
:1058600081E008950E94A02C0E94A82CE0EEF0E0B8
:10587000808181608083E8EDF0E080818F77808394
:1058800019BCA7EDB0E08C918E7F8C9380818F7EC8
:1058900080831092BA0308950F931F93CF93DF93E1
:1058A0000E94A02C0E94A82CC8EDD0E088818F77A0
:1058B000888388818068888388818F7D888319BCEC
:1058C0001092BB031092B7031092B9031092B80361
:1058D00000EE10E0F80180818B7F808388818160F9
:1058E000888342E060E080E00E94AE2BE1EEF0E0D1
:1058F00080818E7F8083E2EEF0E080818160808312
:10590000808188608083F80180818E7F8083888198
:1059100080618883DF91CF911F910F910895E8ED09
:10592000F0E080818F7E8083E7EDF0E08081816010
:10593000808384E082BF81E08093BA030C944C2C76
:10594000E8EDF0E080818E7F80831092E200089580
:105950001092DA001092E10008951F920F920FB694
:105960000F9211242F933F934F935F936F937F93E5
:105970008F939F93AF93BF93EF93FF938091E10039
:1059800082FF0BC08091E20082FF07C08091E1009E
:105990008B7F8093E1000E947C288091DA0080FF59
:1059A00019C08091D80080FF15C08091DA008E7FE9
:1059B0008093DA008091D90080FF96C080E189BD94
:1059C00082E189BD09B400FEFDCF81E08093BB0375
:1059D0000E9457288091E10080FF19C08091E20069
:1059E00080FF15C08091E2008E7F8093E20080915D
:1059F000E20080618093E2008091D8008062809311
:105A0000D80019BC85E08093BB030E947428809164
:105A1000E10084FF2BC08091E20084FF27C080E179
:105A200089BD82E189BD89B5982F917080FFFBCF38
:105A30008091D8008F7D8093D8008091E1008F7E87
:105A40008093E1008091E2008F7E8093E20080915C
:105A5000E20081608093E2008091B703882309F41B
:105A600049C084E08093BB030E9478288091E100C4
:105A700083FF29C08091E20083FF25C08091E1006F
:105A8000877F8093E10082E08093BB031092B7038D
:105A90008091E1008E7F8093E1008091E2008E7F13
:105AA0008093E2008091E20080618093E20042E016
:105AB00060E080E00E94AE2B8091F00088608093CF
:105AC000F0000E947028FF91EF91BF91AF919F91DC
:105AD0008F917F916F915F914F913F912F910F9097
